:100000000C94F0350C9421360C9421360C94213646
:100010000C9421360D943A560C9421360C942136CA
:100020000D94BF550C9421360C9421360C9491B745
:100030000C9421360D94F7D00C9421360C94213673
:100040000C9421360D94B81C0C9421360C94213656
:100050000C9421360C9421360C9412F70D943DCC5F
:100060000C9421360D94D4290C9421360C9421360D
:100070000C9421360C9421360C9421360C942136A4
:100080000C9421360C9421360C9421360C94213694
:100090000D94182A0C9421360C9421360D946DC9B8
:1000A0000C9421360C9421360C9421360C94213674
:1000B0000C9421360C9421360C9421360C94213664
:1000C0000C9421360C9421360C9421360C94213654
:1000D0000C9421360C9421360C9421360C94213644
:1000E0000C942136F5660D67146732675B676267AB
:1000F0006E678B67A367C067EC6743785B786F7840
:1001000087789978C878E478AC79CF79DF79FC7909
:100110001D7A4D7A557A5D7A5D7A5D7A837A837A33
:10012000837A657A937A837A6F7A5A013E017001F5
:10013000820142016C012E0154014C0176018401BF
:1001400048015E0174014A017C016A012A015C01D7
:10015000400130015E017E01260162016E0128012D
:1001600088013A01560186013C01640144013601CF
:100170008C018E014E015601780160018A01084A06
:10018000D73B3BCE016E84BCBFFDC12F3D6C7431AB
:100190009ABD56833DDA3D00C77F11BED9E4BB4C02
:1001A0003E916BAAAABE000000803F05A84CCDB2CC
:1001B000D44EB93836A9020C50B9918688083CA6AD
:1001C000AAAA2ABE000000803F07634236B79BD828
:1001D000A71A39685618AEBAAB558C1D3CB7CC5728
:1001E00063BD6DEDFD753EF6177231BF00000080F6
:1001F0003F08000000BE922449123EABAAAA2ABEC4
:10020000CDCCCC4C3E00000080BEABAAAAAA3E00DA
:10021000000000BF000000803F0000000000084117
:1002200078D3BB4387D1133D190E3CC3BD4282AD89
:100230002B3E68EC8276BED98FE1A93E4C80EFFF61
:10024000BE01C4FF7F3F0000000000000D94E3CA20
:100250000D94ACCB0D94CBCA0D94882D0D940FC486
:100260000D94D9CA0D94A1C40D94C4C80D94E9CBC2
:100270000D94C3940D94BBCB0D94CDCB0D94ADC315
:100280000D94D5CA0D94CFC30D94DFCB0D949394E8
:100290000D94ACCA0D94BDCA0D94B2CA0D940CCC89
:1002A0000D9403C90D9461940D943CC40D9434CC09
:1002B0000D94ADC40D94A9C30D94D1CA0D94ECCA8C
:1002C0000D9420CC0D94E7CA0D94D5CB0D94B0C8F5
:1002D0000D9441C90D94C7CA0D94E8C30D94A7CBE2
:1002E0000D94B2C30D9456D10D94B9CA0D94B5CAEC
:1002F0000D9416CC0D94D3C80D94C3CA0D94DFCAC7
:100300000D94D4C80D94BAC30D94A8CA0D94C5CB4E
:100310000D94B1CB0D942ACC0D94F3CB0D9402CC5B
:100320000D94A8C84E414E494E495459494E46CDA8
:10033000CCCC3D0AD7233C17B7D13877CC2B32959C
:1003400095E6241FB14F0A000020410000C842007A
:10035000401C4620BCBE4CCA1B0E5AAEC59D740044
:10036000407A10F35A00A0724E18090010A5D4E884
:100370000000E87648170000E40B54020000CA9A17
:100380003B000000E1F50500008096980000004069
:10039000420F000000A086010000001027000000AE
:1003A00000E803000000006400000000000A0000F4
:1003B0000000000100000000002C76D888DC674FA8
:1003C0000823DFC1DFAE59E1B1B796E5E3E453C6D8
:1003D0003AE651997696E8E6C28426EB898C9B62D0
:1003E000ED407C6FFCEFBC9C9F40F2BAA56FA5F47A
:1003F00090055A2AF75C936B6CF9676DC11BFCE0A2
:10040000E40D47FEF520E6B500D0ED902E030094F4
:100410003577050080841E080000204E0A00000089
:10042000C80C333333330F986E12831141EF8D2193
:1004300014893BE65516CFFEE6DB18D1844B381BFA
:10044000F77C1D901DA4BBE424203284725E2281BF
:1004500000C9F124ECA1E53D2743616C696272613A
:1004600074696E6720686F6D65006C63645F7365A7
:100470006C66636865636B5F617869732025642CC3
:100480002025640A0041786973206C656E67746882
:1004900020646966666572656E63653A004D6561E4
:1004A00073757265642061786973206C656E67741A
:1004B000683A0025632041584953205347313D2570
:1004C000640A004D3834004731205A313520463116
:1004D0003030300047323820570043686F6F736503
:1004E00020636F6C6F723A00436F6E74696E75654E
:1004F000207769746820616E6F7468657220626F1E
:100500007764656E3F0053746174653A2000473725
:1005100036004D3435205A004D3435004738300010
:1005200054656D70657261747572652063616C6984
:1005300062726174696F6E206661696C65642E20F9
:10054000436F6E74696E7565207769746820707288
:10055000657373696E6720746865206B6E6F622EB9
:100560000054656D70657261747572652063616CAD
:100570006962726174696F6E20646F6E652E2043CC
:100580006F6E74696E756520776974682070726526
:100590007373696E6720746865206B6E6F622E00DE
:1005A00020003E003E0020003E003E003E003E0097
:1005B00020003E003E00200000002D2D2D2D2D2D71
:1005C0002D2D2D2D2D2D2D2D2D2D2D2D2D2D004E67
:1005D0002F41004E2F41006D6D00004D373032002D
:1005E000496E76616C6964205049442063616C2EC9
:1005F00020726573756C74732E204E6F7420737443
:100600006F72656420746F20454550524F4D2E0027
:100610004D353030004731205A31352046313530A4
:1006200030004739310047312058353020593139B1
:100630003020453020463730303000473930004DCB
:10064000373032004D3730322043004D37303220C2
:1006500055004D373032004731205A313520463170
:100660003530300047393100473120583530205976
:10067000313930204530204637303030004D383366
:1006800000473930004D3834004D3130342053307C
:10069000004D38340047312058313020593138303E
:1006A000204634303030004731205A313020463136
:1006B0003330302E303030004D3134302053300064
:1006C0004D313034205330004D3130370047312028
:1006D000452D302E30373530302046323130302EF7
:1006E00030303030300047312058353020593535E2
:1006F0002045332E363237373300473120583230D9
:1007000030205935352045302E34393338360047BE
:10071000312058323030205937352045332E36328B
:100720003737330047312058353020593735204589
:10073000302E34393338360047312058353020597F
:1007400039352045332E363237373300473120587C
:10075000323030205939352045302E34393338364F
:10076000004731205832303020593131352045335F
:100770002E36323737330047312058353020593143
:1007800031352045302E3439333836004731205842
:10079000353020593133352045332E363237373313
:1007A0000047312058323030205931333520453020
:1007B0002E36363137340047312058323030205908
:1007C0003135352045322E36323737330047312028
:1007D00058313030205931353520453200473120ED
:1007E00058373520593135352045322E35004731BF
:1007F00020463130383000473120583530205931CB
:100800003535004731204634303030004D323034F9
:10081000205331303030004731205A302E313530BE
:100820002046373230302E30303000473120452DD1
:10083000312E35303030302046323130302E3030AD
:10084000303030004D383300473930004732310006
:100850004739322045302E30004731205831303072
:100860002E30204531322E352046313030302E307A
:10087000004731205836302E302045392E30204662
:10088000313030302E30004739322045302E3000A4
:10089000473238004D3130392053323135004D3137
:1008A000393020533630004D31343020533630004B
:1008B0004D3130342053323135004D31303700471F
:1008C0003930004731204531004D38320047312062
:1008D0004531004D3833004D31303620532564000A
:1008E0004D32323020532564003A20002020202051
:1008F0002020202020202020202020202020200018
:10090000203A2000202020202020202020202020ED
:1009100020202020202020200020202020202020F7
:10092000202020202020002573002020002D2D3A9B
:100930002D2D002000200020004C0020200020460B
:10094000002D2D2D003E555342005344002D2D0007
:100950002520202020200020200020200001200031
:100960002020202D2D2D200020205A0020200001A5
:1009700020004D36303000464C4558202D20203286
:1009800034302F35300050502020202D202032359B
:10099000342F3130300048495053202D202032323E
:1009A000302F3130300041425320202D202032356D
:1009B000352F3130300050455420202D2020323347
:1009C000302F383500504C4120202D202032313539
:1009D0002F363000414253202020202D2020323558
:1009E000352F313030006E6F7A7A6C65202D2020E3
:1009F0003235302F30006661726D2020202D20208E
:100A00003235302F3630004D3234004D3233202510
:100A10007300052E2E004D37303100580059005A12
:100A2000004578747275646572004739390044690D
:100A30007361626C65206661726D206D6F64653FE5
:100A40000044697361626C65206661726D206D6F30
:100A50006465004661726D206E756D626572004D51
:100A60003834005A30005A3100593000593100589A
:100A70003000583100456E642073746F70732064C9
:100A8000696167004D3434004732382057001B5BE2
:100A9000303B30484C617374207072696E7420660C
:100AA00061696C757265731B5B313B3148506F77C0
:100AB0006572206661696C757265732020252D331F
:100AC000641B5B323B314846696C616D2E20727548
:100AD0006E6F7574732020252D33641B5B333B319F
:100AE00048437261736820205820252D33642020EC
:100AF0005920252D3364001B5B303B3048546F7404
:100B0000616C206661696C757265731B5B313B318A
:100B100048506F776572206661696C7572657320E5
:100B200020252D33641B5B323B314846696C616D77
:100B30002E2072756E6F7574732020252D33641B03
:100B40005B333B3148437261736820205820252D68
:100B5000336420205920252D336400546F74616C58
:100B6000004C617374207072696E74001B5B303BC3
:100B7000314842656C74207374617475731B5B310A
:100B80003B3248582025641B5B323B3248592025B4
:100B900064001B5B323B3148416D6269656E743A9B
:100BA0002020256425631B5B333B314850494E446C
:100BB000413A2020202025642563001B5B303B3117
:100BC000484E6F7A7A6C653A202020256425631B95
:100BD0005B313B31484265643A20202020202025AB
:100BE000642563001B5B313B31485057523A20204B
:100BF0002020202025642E2530316456002D2D2DF7
:100C00002D2D2D2D2D2D2D2D2D00466C6173684120
:100C1000697220495020416464723A002D2D2D2DB7
:100C20002D2D2D2D2D2D2D2D004D6179202039209C
:100C300032303138002D2D2D2D2D2D2D2D2D2D2DFA
:100C40002D00453344763666756C6C0045494E532D
:100C5000795F31306100315F37356D6D5F4D4B33FA
:100C6000002D2D2D2D2D2D2D2D2D2D2D2D00203315
:100C70002E322E302D353535004669726D77617212
:100C8000653A0025642E25642E25642E25640046D1
:100C900061696C207374617473004661726D206EBB
:100CA000756D626572004D36303000473120453336
:100CB000204632303000473120452D332046323037
:100CC000300070617439313235206E6F7420726576
:100CD00073706F6E64696E67202831292E0A007068
:100CE000617439313235206E6F7420726573706FA4
:100CF0006E64696E67202832292E0A00706174398B
:100D0000313235206E6F7420726573706F6E646956
:100D10006E67202833292E0A00504154393132356C
:100D20005F696E69743A25640A007C3C3E5E2B3D27
:100D30003F2F5B5D3B2C2A225C0050727573612053
:100D40006933204D4B33206F6B00507275736120F7
:100D50006933204D4B332072656164792E007A5FD0
:100D60006D696E3A20007A5F6D61783A20005A20F2
:100D70004F666673657400795F6D696E3A2000791D
:100D80005F6D61783A20005920767A64616C656EF7
:100D90006F7374206F64206D696E3A005920646926
:100DA0007374616E63652066726F6D206D696E3A53
:100DB00000416E6F0059657300785F6D696E3A206F
:100DC00000785F6D61783A200044657461696C79E0
:100DD0002058595A206B616C2E0058595A20636173
:100DE0006C2E2064657461696C73004E796E6920A5
:100DF00070726F76656475207A206B616C696272BF
:100E00006163692E00492077696C6C2072756E20D1
:100E10007A2063616C6962726174696F6E206E6FB3
:100E2000772E004E796E692070726F76656475203A
:100E300078797A206B616C6962726163692E205ADD
:100E4000616265726520746F20707269626C697A84
:100E50006E65203132206D696E2E00492077696CF5
:100E60006C2072756E2078797A2063616C69627289
:100E70006174696F6E206E6F772E204974207769D8
:100E80006C6C2074616B6520617070726F782E20BD
:100E90003132206D696E732E004E796E692070724A
:100EA0006564656872656A6920747279736B752010
:100EB00070726F20504C412E004E6F772049207782
:100EC000696C6C2070726568656174206E6F7A7AE7
:100ED0006C6520666F7220504C412E00446F627228
:100EE000792064656E2C206A73656D207661736568
:100EF000207469736B61726E61204F726967696EED
:100F0000616C2050727573612069332E20436863D1
:100F10006574652061627963682056617320707220
:100F20006F7665646C61206B616C69627261636E7F
:100F3000696D2070726F636573656D3F0048692C41
:100F4000204920616D20796F7572204F7269676941
:100F50006E616C2050727573612069332070726904
:100F60006E7465722E20576F756C6420796F7520D2
:100F70006C696B65206D6520746F206775696465A9
:100F800020796F75207468726F7567682074686562
:100F90002073657475702070726F636573733F00A2
:100FA0005A61636E75207469736B6E6F7574206C13
:100FB000696E6B7520612056792062756465746571
:100FC00020706F737475706E6520736E697A6F76BA
:100FD000617420747279736B75206F746163656ED0
:100FE000696D20746C616369746B6120646F6B75EB
:100FF00064206E65646F7361686E657465206F70E0
:1010000074696D616C6E69207679736B792E2050EE
:10101000726F686C65646E657465207369206F62B9
:1010200072617A6B792076206E61736920707269C3
:1010300072756363652076206B617069746F6C658F
:10104000204B616C69627261636500492077696C4D
:101050006C20737461727420746F207072696E7486
:10106000206C696E6520616E6420796F75207769E8
:101070006C6C206772616475616C6C79206C6F7741
:10108000657220746865206E6F7A7A6C652062796B
:1010900020726F746174696E6720746865206B6E6E
:1010A0006F622C20756E74696C20796F7520726583
:1010B000616368206F7074696D616C206865696731
:1010C00068742E20436865636B20746865207069BE
:1010D00063747572657320696E206F757220686124
:1010E0006E64626F6F6B20696E20636861707465F7
:1010F000722043616C6962726174696F6E2E004E7A
:10110000796E69207A6B616C696272756A692076A2
:101110007A64616C656E6F7374206D657A69206B9B
:101120006F6E63656D20747279736B7920612070C6
:101130006F76726368656D20686561746265647559
:101140002E004E6F7720492077696C6C2063616CAC
:101150006962726174652064697374616E6365208D
:101160006265747765656E20746970206F6620749F
:101170006865206E6F7A7A6C6520616E64206865A0
:10118000617462656420737572666163652E004EDA
:10119000656A6472697620706F6D6F63692073652C
:1011A0006C667465737475207A6B6F6E746F6C7592
:1011B0006A69206E656A63617374656A7369206326
:1011C0006879627920767A6E696B616A69636920F1
:1011D00070726920736573746176656E69207469D5
:1011E000736B61726E792E0046697273742C20499C
:1011F0002077696C6C2072756E2074686520736549
:101200006C667465737420746F20636865636B200B
:101210006D6F737420636F6D6D6F6E206173736596
:101220006D626C792070726F626C656D732E005305
:1012300070757374656E692057697A617264612094
:1012400076796D617A6520756C6F7A656E6520764A
:1012500079736C65646B79207673656368206B6164
:101260006C6962726163692061207370757374695F
:10127000206B616C69627261636E692070726F636A
:101280006573206F64207A616361746B752E2050E2
:101290006F6B7261636F7661743F0052756E6E6939
:1012A0006E672057697A6172642077696C6C20647C
:1012B000656C6574652063757272656E7420636118
:1012C0006C6962726174696F6E20726573756C749B
:1012D0007320616E642073746172742066726F6D26
:1012E0002074686520626567696E6E696E672E207E
:1012F000436F6E74696E75653F004368636574651E
:10130000206F70616B6F76617420706F736C6564B1
:101310006E69206B726F6B206120706F7A6D656EE5
:10132000697420767A64616C656E6F7374206D6584
:101330007A6920747279736B6F75206120686561BA
:10134000746265643F00446F20796F752077616E29
:101350007420746F20726570656174206C617374A1
:10136000207374657020746F20726561646A757390
:10137000742064697374616E636520626574776557
:10138000656E206E6F7A7A6C6520616E6420686588
:1013900061746265643F0057697A61726461206DAF
:1013A000757A657465206B64796B6F6C6976207AE9
:1013B0006E6F76752073707573746974207A206D02
:1013C000656E752043616C6962726174696F6E202D
:1013D0002D3E2057697A61726400596F75206361F0
:1013E0006E20616C7761797320726573756D65200D
:1013F0007468652057697A6172642066726F6D2027
:1014000043616C6962726174696F6E202D3E205772
:10141000697A6172642E004A6520746F20504C41D5
:101420002066696C616D656E743F00497320697454
:1014300020504C412066696C616D656E743F0050B0
:10144000726F73696D20766C6F7A746520504C41B1
:101450002066696C616D656E7420646F20657874B8
:101460007275646572752C20706F207465207374BA
:1014700069736B6E65746520746C616369746B6FFE
:101480002070726F207A61766564656E6920666986
:101490006C616D656E74752E00506C6561736520AE
:1014A000696E7365727420504C412066696C616D81
:1014B000656E7420746F2074686520657874727529
:1014C0006465722C207468656E2070726573732079
:1014D0006B6E6F6220746F206C6F61642069742E74
:1014E0000050726F73696D207A617665647465204F
:1014F000504C412066696C616D656E74206120708E
:101500006F207465206F626E6F7674652057697AFC
:101510006172646120737469736B6E7574696D2098
:10152000726573657420746C616369746B612E00FD
:10153000506C65617365206C6F616420504C412074
:1015400066696C616D656E7420616E642074686597
:101550006E20726573756D652057697A61726420BB
:101560006279207265626F6F74696E672074686556
:10157000207072696E7465722E00507265646568C1
:10158000726976616D20747279736B752E2050725A
:101590006F73696D2063656B656A74652E005072A8
:1015A0006568656174696E67206E6F7A7A6C652E06
:1015B00020506C6561736520776169742E004A65FF
:1015C0002066696C616D656E74207A61766564650C
:1015D0006E3F0049732066696C616D656E74206CA6
:1015E0006F616465643F00567365206A6520686FAB
:1015F000746F766F2E00416C6C20697320646F6E7F
:10160000652E204861707079207072696E74696E01
:1016100067210050726F73696D206F636973746521
:101620007465206865617462656420612073746903
:10163000736B6E65746520746C616369746B6F2E77
:1016400000506C6561736520636C65616E20686530
:10165000617462656420616E64207468656E2070D8
:101660007265737320746865206B6E6F622E005014
:10167000726F73696D206E61686C65646E65746508
:1016800020646F206D616E75616C752061206F70D4
:1016900072617674652070726F626C656D2E205079
:1016A0006F207465206F626E6F7674652057697A5B
:1016B00061726461207265626F6F746F76616E69CA
:1016C0006D207469736B61726E792E00506C656168
:1016D000736520636865636B206F75722068616E47
:1016E00064626F6F6B20616E642066697820746835
:1016F000652070726F626C656D2E205468656E2077
:10170000726573756D65207468652057697A6172BA
:1017100064206279207265626F6F74696E672074ED
:101720006865207072696E7465722E0057697A61FF
:10173000726400205761746368646F672052657338
:10174000657400496E666F726D61636500496E660F
:101750006F2073637265656E0043656B616E69200F
:101760006E61207A63686C61646E7574692050499B
:101770004E44410057616974696E6720666F72203C
:1017800050494E44412070726F626520636F6F6CE8
:10179000696E670043656B616E69206E61207A63D4
:1017A000686C61646E75746920747279736B7920EA
:1017B0006120706F646C6F7A6B792E005761697469
:1017C000696E6720666F72206E6F7A7A6C65206131
:1017D0006E642062656420636F6F6C696E67004B96
:1017E000616C2E207072766E6920767273747679D1
:1017F000004669727374206C617965722063616C54
:101800002E005761697420666F7220757365722EA1
:101810002E2E00506F757A69746520626568656D5B
:10182000207469736B750055736564206475726903
:101830006E67207072696E740042796C6F207679E1
:1018400073756E7574692066696C616D656E74750B
:101850002075737065736E653F005761732066690C
:101860006C616D656E7420756E6C6F61642073754C
:10187000636365737366756C3F0056796A6D6F7547
:10188000742066696C616D656E7400556E6C6F6175
:10189000642066696C616D656E74005679736F754E
:1018A00076616D2066696C616D656E7400556E6C55
:1018B0006F6164696E672066696C616D656E740046
:1018C000556E6B6E6F776E20636F6D6D616E643AEF
:1018D0002022004C616469740054756E65005344A5
:1018E0002063617264205B466C73684169725D00BD
:1018F0005344206361726420205B6E6F726D616C73
:101900005D00537461626C6520616D6269656E741F
:101910002074656D70657261747572652032312D49
:10192000323643206973206E6565646564206120EA
:101930007269676964207374616E642069732072D0
:10194000657175697265642E005465706C6F746E94
:1019500069206B616C6962726163652073656C6894
:10196000616C610054656D7065726174757265209B
:1019700063616C6962726174696F6E206661696C23
:101980006564005465706C2E206B616C2E20205BAA
:101990007A61705D0054656D702E2063616C2E203D
:1019A00020205B6F6E5D005465706C2E206B616C47
:1019B0002E20205B7679705D0054656D702E20635B
:1019C000616C2E20205B6F66665D005465706C6FE5
:1019D000746E69206B616C69627261636520646F0B
:1019E0006B6F6E63656E612061206A65206E796E33
:1019F0006920616B7469766E692E205465706C6F16
:101A0000746E69206B616C696272616369206A65DA
:101A1000206D6F7A6E6F206465616B7469766F7686
:101A200061742076206D656E75204E6173746176E9
:101A3000656E692D3E5465706C2E206B616C2E00B6
:101A400054656D70657261747572652063616C694F
:101A500062726174696F6E2069732066696E697362
:101A600068656420616E64206163746976652E2008
:101A700054656D702E2063616C6962726174696F68
:101A80006E2063616E2062652064697361626C65BB
:101A90006420696E206D656E752053657474696E7F
:101AA00067732D3E54656D702E2063616C2E00545B
:101AB00065706C2E206B616C2E2020202020202051
:101AC0002020200054656D702E2063616C2E202034
:101AD0002020202020202020005465706C6F74612D
:101AE0000054656D706572617475726500506F6445
:101AF000706F726100537570706F7274005A617309
:101B00007461766974207469736B0053746F70200C
:101B10007072696E740053544F505045442E20002B
:101B2000537465707261746520746F6F20686967A3
:101B3000683A20004A65207469736B6F767920706B
:101B40006C6174206E6120686561746265643F0039
:101B5000497320737465656C207368656574206FC4
:101B60006E20686561746265643F004D6F6420207B
:101B70002020205B537465616C74685D004D6F6458
:101B800065202020205B537465616C74685D004D96
:101B90006F642020202020205B4E6F726D616C5D91
:101BA000004D6F646520202020205B4E6F726D61B8
:101BB0006C5D0043656C6B6F767920636173203ACE
:101BC00000546F74616C207072696E742074696D5A
:101BD00065203A0046696C616D656E742063656CC2
:101BE0006B656D203A00546F74616C2066696C619E
:101BF0006D656E74203A00436173207469736B7570
:101C0000203A2020005072696E742074696D653A24
:101C100020200046696C616D656E74203A202000BA
:101C200046696C616D656E7420757365643A202039
:101C30000053746174697374696B6120200053747C
:101C40006174697374696373202000436879626109
:101C5000202D20446F736C6F206B2070726570694B
:101C60007375207374617469636B652070616D6551
:101C7000746921004572726F72202D207374617433
:101C80006963206D656D6F7279206861732062658C
:101C9000656E206F7665727772697474656E005236
:101CA0007963686C6F737400537065656400547277
:101CB0006964656E6920202020205B4361735D00AC
:101CC000536F72743A2020202020205B54696D6588
:101CD0005D0054726964656E692020205B5A6164FE
:101CE0006E655D00536F72743A2020202020205BC7
:101CF0004E6F6E655D0054726964656E69205B416C
:101D00006265636564615D00536F72743A20205BA5
:101D1000416C7068616265745D0054726964656EDF
:101D20006920736F75626F727500536F7274696E9C
:101D3000672066696C65730020536F667477617203
:101D400065205265736574004C65686B65207A6B1D
:101D50006F73656E693A00536C6967687420736BC2
:101D600065773A0053746176206B6F6E632E207333
:101D700070696E2E0053686F7720656E64207374EF
:101D80006F70730054657A6B65207A6B6F73656E44
:101D9000693A0053657665726520736B65773A0022
:101DA0004E61737461767465207465706C6F7475C0
:101DB0003A005365742074656D7065726174757254
:101DC000653A004E6173746176656E69005365749F
:101DD00074696E6773004368796261207A61706F1D
:101DE0006A656E6900576972696E67206572726F05
:101DF000720050726F686F7A656E6500537761701C
:101E00007065640053656C66207465737420737428
:101E10006172742020005469736B6F767920766547
:101E20006E742E3A005072696E742066616E3A00CC
:101E30005A6B6F6E74726F6C756A7465203A0050DD
:101E40006C6561736520636865636B203A00536558
:101E50006C662074657374204F4B004E657A617018
:101E60006F6A656E6F20202020004E6F7420636FB4
:101E70006E6E6563746564004D6F746F72004865C3
:101E8000617465722F546865726D6973746F720046
:101E900053656E7A6F722066696C616D656E7475DC
:101EA0003A0046696C616D656E742073656E736F80
:101EB000723A00546F6369207365005370696E6EE7
:101EC000696E67004E65746F6369207365004E6FBD
:101ED00074207370696E6E696E6700507265646E0F
:101EE000692F6C6576792076656E742E0046726F68
:101EF0006E742F6C6566742066616E730054657332
:101F0000742076656E74696C61746F7275004661D9
:101F10006E20746573740053656C66746573742009
:101F200073656C68616C20200053656C6674657322
:101F300074206661696C65642020004C65767920A8
:101F400076656E742E3A00457874727564657220F9
:101F500066616E3A004C6576792076656E74206E07
:101F600061207472797363653F004C656674206804
:101F70006F74656E642066616E3F0053656C6674B5
:101F8000657374206572726F72202100456E6473F0
:101F9000746F70206E6F742068697400456E64738E
:101FA000746F707300456E6473746F700050726567
:101FB000646E69207469736B6F76792076656E74D0
:101FC0003F0046726F6E74207072696E7420666195
:101FD0006E3F004B6F6E74726F6C61205A20617897
:101FE0006973202000436865636B696E67205A201F
:101FF000617869732020004B6F6E74726F6C612082
:10200000592061786973202000436865636B696EAD
:1020100067205920617869732020004B6F6E7472BD
:102020006F6C6120582061786973202000436865D7
:10203000636B696E67205820617869732020004BBC
:102040006F6E74726F6C6120686F74656E642020AF
:1020500000436865636B696E6720686F74656E64C2
:102060002020004B6F6E74726F6C612073656E7A06
:102070006F727500436865636B696E672073656E88
:10208000736F727320004B6F6E74726F6C6120659A
:102090006E6473746F707300436865636B696E6719
:1020A00020656E6473746F7073004B6F6E74726F23
:1020B0006C612062656420202020200043686563F5
:1020C0006B696E67206265642020202020005673B3
:1020D00065204F4B20202020202020202020200081
:1020E000416C6C20636F7272656374202020202025
:1020F0002000426564202F204865617465720044A9
:10210000656C6B61206F73790041786973206C6531
:102110006E677468004F736100417869730053659E
:102120006C667465737420202020202020202000FD
:1021300052506920706F7274202020205B7A617089
:102140005D0052506920706F727420202020205B47
:102150006F6E5D0052506920706F727420202020D5
:102160005B7679705D0052506920706F7274202028
:1021700020205B6F66665D0057726974696E672028
:10218000746F2066696C653A2000766F6C756D65BA
:102190002E696E6974206661696C656400205369FC
:1021A0007A653A20004B617274612076796A6D75A8
:1021B000746100436172642072656D6F76656400BE
:1021C0005344207072696E74696E67206279746519
:1021D00020006F70656E206661696C65642C204616
:1021E000696C653A20006F70656E526F6F7420667F
:1021F00061696C6564004B6172746120766C6F7A02
:10220000656E61004361726420696E736572746506
:102210006400534420696E6974206661696C0046ED
:10222000696C652073656C65637465640046696CF0
:1022300065206F70656E65643A20006572726F721A
:102240002077726974696E6720746F2066696C65A7
:102250000053442063617264206F6B0043616E6EB3
:102260006F7420656E746572207375626469723A6A
:10227000200050726176793A0052696768743A00BA
:102280004F626E6F766F76616E69207469736B75DD
:1022900000526573756D696E67207072696E7400A7
:1022A0004F626E6F76656E69207469736B7500524C
:1022B0006573756D696E67207072696E7400506F1A
:1022C0006B7261636F76617400526573756D652022
:1022D0007072696E7400526573656E643A20004FC7
:1022E00064737472616E7465207469736B6F767950
:1022F00020706C6174207A20686561746265642066
:1023000070726F73696D2E00506C65617365207219
:10231000656D6F766520737465656C20736865659F
:10232000742066726F6D20686561746265642E004A
:10233000446574656B6F76616E2076797061646553
:102340006B2070726F7564752E4F626E6F76697454
:10235000207469736B3F00426C61636B6F7574200E
:102360006F636375727265642E205265636F766564
:1023700072207072696E743F004F626E6F766F7676
:10238000616E69207469736B75202020200052658E
:10239000636F766572696E67207072696E74202053
:1023A00020200050726F73696D2076796A6D6574B4
:1023B000652075727963686C656E652066696C610D
:1023C0006D656E7400506C656173652070756C6C22
:1023D000206F75742066696C616D656E7420696D1F
:1023E0006D6564696174656C7900686F77746F2ED0
:1023F000707275736133642E637A00686F77746FDF
:102400002E707275736133642E636F6D00666F7228
:10241000756D2E707275736133642E637A00666F0A
:1024200072756D2E707275736133642E636F6D00FB
:10243000707275736133642E637A007072757361A4
:1024400033642E636F6D005469736B20706F7A6113
:1024500073746176656E005072696E742070617578
:10246000736564005469736B20707265727573656F
:102470006E005072696E742061626F7274656400E0
:1024800050726F20767973756E7574692066696C09
:10249000616D656E747520737469736B6E657465B8
:1024A0002070726F73696D20746C616369746B6FF7
:1024B00000506C6561736520707265737320746879
:1024C00065206B6E6F6220746F20756E6C6F616437
:1024D0002066696C616D656E740050726F206E616C
:1024E000687261746920747279736B7920612070ED
:1024F0006F6B7261636F76616E6920737469736B61
:102500006E65746520746C616369746B6F2E005026
:1025100072657373206B6E6F6220746F20707265CA
:1025200068656174206E6F7A7A6C6520616E6420D4
:10253000636F6E74696E75652E00612073746973C4
:102540006B6E65746520746C616369746B6F006198
:102550006E6420707265737320746865206B6E6F93
:10256000620050726564656872656A746520747291
:1025700079736B75210050726568656174207468A9
:1025800065206E6F7A7A6C652100507265646568AB
:10259000726576005072656865617400506F77658A
:1025A0007255700050726F73696D2063656B656A58
:1025B000746500506C656173652077616974004EC5
:1025C000656A6472697665207A61766564746520EF
:1025D000504C412066696C616D656E742070726F3D
:1025E00073696D2E00506C65617365206C6F61645A
:1025F00020504C412066696C616D656E742066697F
:102600007273742E004A6520504C412066696C61DB
:102610006D656E74207A61766564656E3F004973FE
:1026200020504C412066696C616D656E74206C6F42
:10263000616465643F002020506C616E6E6572427B
:10264000756666657242797465733A2000556D69E6
:1026500073746574652070726F73696D207469732B
:102660006B6F767920706C6174206E612068656193
:102670007462656400506C6561736520706C6163A1
:102680006520737465656C207368656574206F6E72
:1026900020686561746265642E004E6168726976B7
:1026A000616E692050494E44410050494E444120DA
:1026B00048656174696E6700504944206B616C2EF7
:1026C00020202020202020202020200050494420AD
:1026D00063616C2E2020202020202020202020003C
:1026E000504944206B616C2E20756B6F6E63656E74
:1026F00061005049442063616C2E2066696E6973E5
:1027000068656400504944206B616C696272616362
:1027100065005049442063616C6962726174696F3D
:102720006E00506F7A617374617669742074697396
:102730006B005061757365207072696E7400556D21
:10274000697374657465206C697374207061706955
:102750007275206E6120706F646C6F7A6B7520618A
:10276000207564727A756A7465206A656A20706F74
:102770006420747279736B6F7520626568656D2073
:102780006D6572656E69207072766E69636820345B
:1027900020626F64752E20506F6B7564207472799F
:1027A000736B61207A616368797469207061706904
:1027B000722C207679706E657465207469736B6114
:1027C000726E752E00506C616365206120736865C0
:1027D0006574206F6620706170657220756E646527
:1027E0007220746865206E6F7A7A6C6520647572E9
:1027F000696E67207468652063616C6962726174D8
:10280000696F6E206F662066697273742034207061
:102810006F696E74732E20496620746865206E6F30
:102820007A7A6C6520636174636865732074686587
:102830002070617065722C20706F776572206F66F2
:102840006620746865207072696E74657220696DA7
:102850006D6564696174656C792E006F6B004F66FD
:1028600066004E6F206D6F76652E005A61646E6152
:10287000205344206B61727461004E6F20534420DA
:102880006361726400547279736B61004E6F7A7A7F
:102890006C650046696C616D656E74206E657A6169
:1028A000766564656E0046696C616D656E74206E58
:1028B0006F74206C6F6164656400426172766120A0
:1028C0006E656E6920636973746100436F6C6F722B
:1028D000206E6F7420636F7272656374004E6500C2
:1028E0004E6F0050726F73696D20616B7475616C0F
:1028F000697A756A74652E00506C65617365207520
:102900007067726164652E005679736C61206E6F1A
:102910007661207665727A65206669726D7761727C
:10292000653A004E6577206669726D776172652041
:1029300076657273696F6E20617661696C61626C35
:10294000653A00506F73756E6F7574205A004D6F45
:102950007665205A00506F73756E6F75742059003C
:102960004D6F7665205900506F73756E6F757420CA
:1029700058004D6F7665205800457874727564650F
:102980007200506F73756E6F7574206F7375004DA4
:102990006F76652061786973004D657368204265C4
:1029A00064204C6576656C696E67004E6170657475
:1029B0006900566F6C7461676573005465706C6F65
:1029C00074790054656D7065726174757265730019
:1029D0004B616C6962726163650043616C6962722C
:1029E0006174696F6E00537461762072656D656EF7
:1029F000750042656C742073746174757300207A7D
:102A0000203900206F662039004D6572696D207293
:102A100065666572656E636E69207679736B752085
:102A20006B616C69627261636E69686F20626F646A
:102A300075004D6561737572696E672072656665B4
:102A400072656E636520686569676874206F6620CB
:102A500063616C6962726174696F6E20706F696E18
:102A600074004D6572656E65207A6B6F73656E6973
:102A70003A004D6561737572656420736B65773AD2
:102A800000486C61766E69206E616269646B6100FA
:102A90004D61696E004D32323120496E76616C694C
:102AA0006420657874727564657220004D32313827
:102AB00020496E76616C696420657874727564650E
:102AC0007220004D32303020496E76616C6964208E
:102AD000657874727564657220005265706F7274E7
:102AE000696E6720656E6473746F702073746174AF
:102AF0007573004D313137204B616C2E207072762A
:102B00006E6920767273747679004D3131372046C4
:102B100069727374206C617965722063616C2E0038
:102B20004D31303920496E76616C69642065787466
:102B3000727564657220004D31303520496E7661C2
:102B40006C696420657874727564657220004D311B
:102B5000303420496E76616C6964206578747275D2
:102B6000646572200055766F6C6E656E61207265CB
:102B70006D656E69636B61004C6F6F736520707576
:102B80006C6C6579005A61766573742066696C6156
:102B90006D656E74004C6F61642066696C616D6573
:102BA0006E74005A61766164656E692066696C6155
:102BB0006D656E7475004C6F6164696E672066693F
:102BC0006C616D656E740043697374656E69206233
:102BD00061727679004C6F6164696E6720636F6C17
:102BE0006F72004C6576793A004C6566743A00560F
:102BF00079626572206A617A796B610053656C65F0
:102C00006374206C616E67756167650043657374FA
:102C1000696E6100456E676C697368004B494C4C86
:102C200045442E2000496E76616C69642065787495
:102C3000727564657200566C6F7A74652066696C93
:102C4000616D656E7400496E736572742066696C9F
:102C5000616D656E74005469736B2E2076656E74B9
:102C60003A005072696E742046414E3A2000547208
:102C700079736B2E2076656E743A004E6F7A7A6C9B
:102C8000652046414E3A004578747275646572203D
:102C9000696E666F004B616C696272756A69205A71
:102CA0000043616C6962726174696E67205A004BFF
:102CB000616C696272616365204F4B0043616C69AE
:102CC00062726174696F6E20646F6E65004B616C37
:102CD0006962726F766174205A0043616C69627236
:102CE000617465205A005A6168726976616E692064
:102CF0004F4B2E0048656174696E6720646F6E6586
:102D00002E005A6168726976616E69004865617467
:102D1000696E670043485942413A2046696C616DCB
:102D2000656E742073656E7A6F72206E6572656170
:102D300067756A652C207A6B6F6E74726F6C756A3A
:102D40007465207A61706F6A656E692E0045525213
:102D50004F523A2046696C616D656E742073656EE2
:102D6000736F72206973206E6F7420726573706F59
:102D70006E64696E672C20706C6561736520636892
:102D800065636B20636F6E6E656374696F6E2E0092
:102D9000462E206175746F7A61762E205B7A6170A1
:102DA0005D00462E206175746F6C6F616420205B3E
:102DB0006F6E5D00462E206175746F7A61762E20ED
:102DC0005B7679705D00462E206175746F6C6F6163
:102DD00064205B6F66665D00462E206175746F7AB5
:102DE00061762E205B4E2F415D00462E206175746A
:102DF0006F6C6F6164205B4E2F415D0046696C2EE5
:102E00002073656E7A6F72205B7A61705D0046692F
:102E10006C2E2073656E736F7220205B6F6E5D0089
:102E200046696C2E2073656E7A6F72205B767970BE
:102E30005D0046696C2E2073656E736F72205B6F48
:102E400066665D0046696C2E2073656E7A6F72202F
:102E50005B4E2F415D0046696C2E2073656E736F6B
:102E600072205B4E2F415D002046726565204D65E6
:102E70006D6F72793A200050726F206B616C6962DD
:102E80007261636920707265736E65686F20726528
:102E9000686F6D6F76616E692062756465206E790A
:102EA0006E69207370757374656E2073656C6674DB
:102EB0006573742E0053656C66746573742077694E
:102EC0006C6C2062652072756E20746F2063616C7B
:102ED00069627261746520616363757261746520F3
:102EE00073656E736F726C657373207265686F6D56
:102EF000696E672E005469736B61726E61206E6536
:102F000062796C61206A65737465207A6B616C69A3
:102F100062726F76616E612E20506F73747570757A
:102F20006A74652070726F73696D20706F646C6570
:102F3000206D616E75616C752C206B617069746FAA
:102F40006C61205A6163696E616D652C206F6473DA
:102F5000746176656320506F73747570206B616C5B
:102F60006962726163652E005072696E74657220C9
:102F7000686173206E6F74206265656E2063616C9A
:102F800069627261746564207965742E20506C6585
:102F900061736520666F6C6C6F7720746865206D57
:102FA000616E75616C2C2063686170746572204677
:102FB000697273742073746570732C207365637405
:102FC000696F6E2043616C6962726174696F6E2013
:102FD000666C6F772E00507275746F6B00466C6F65
:102FE0007700446F6B6F6E636F76616E6920706FF0
:102FF000687962750046696E697368696E67206DED
:103000006F76656D656E747300207A203400206FD2
:1030100066203400486C6564616D206B616C696288
:103020007261636E6920626F6420706F646C6F7A86
:103030006B7900536561726368696E6720626564CD
:103040002063616C6962726174696F6E20706F6970
:103050006E7400446F6E6520736176696E672066DA
:10306000696C652E00446F6E65207072696E7469BC
:103070006E672066696C6500536F75626F72206EB3
:10308000656B6F6D706C65746E692E20506F6B721E
:1030900061636F7661743F0046696C6520696E6399
:1030A0006F6D706C6574652E20436F6E74696E75FC
:1030B0006520616E797761793F004E656B7465724A
:1030C0006520736F75626F7279206E656275646FCB
:1030D0007520736574726964656E792E204D617810
:1030E000696D616C6E6920706F63657420736F75B4
:1030F000626F72752070726F207365747269646597
:103100006E69206A65203130302E00536F6D652066
:1031100066696C65732077696C6C206E6F742062D1
:103120006520736F727465642E204D61782E204E79
:103130006F2E206F662066696C657320696E203182
:1031400020666F6C64657220666F7220736F727494
:10315000696E67206973203130302E0053656E7AB6
:103160006F722066696C616D656E74750046696C7E
:10317000616D656E742073656E736F720046696C65
:10318000616D656E74207679746C6163656E206123
:103190002073707261766E652062617276793F008D
:1031A00046696C616D656E742065787472756469CA
:1031B0006E672026207769746820636F727265637A
:1031C0007420636F6C6F723F0056796D656E697421
:1031D0002066696C616D656E74004368616E676539
:1031E0002066696C616D656E7400527963686C6FFE
:1031F00073742076656E742E0046616E2073706560
:103200006564004B6F6E74722E2076656E742E5B53
:103210007A61705D0046616E7320636865636B2040
:1032200020205B6F6E5D004B6F6E74722E20766592
:103230006E742E5B7679705D0046616E73206368F4
:1032400065636B20205B6F66665D00656E717565FA
:10325000696E6720220020205B6F666600452D6343
:103260006F7272656374004578747275646572007C
:103270002045787465726E616C20526573657400C8
:103280005072696E7465722073746F70706564201B
:1032900064756520746F206572726F72732E20469C
:1032A000697820746865206572726F7220616E643F
:1032B00020757365204D39393920746F207265731C
:1032C000746172742E202854656D70657261747516
:1032D00072652069732072657365742E205365745E
:1032E00020697420616674657220726573746172FE
:1032F00074696E6729004E6F204C696E65204E75AB
:103300006D626572207769746820636865636B73AA
:10331000756D2C204C617374204C696E653A2000E9
:103320004E6F20436865636B73756D2077697468B1
:10333000206C696E65206E756D6265722C204C6123
:103340007374204C696E653A200020746F6F206C96
:103350006F6E6720657874727573696F6E20707216
:103360006576656E746564004C696E65204E756D9A
:10337000626572206973206E6F74204C61737420D3
:103380004C696E65204E756D6265722B312C204C38
:10339000617374204C696E653A20005072696E74D6
:1033A00065722068616C7465642E206B696C6C2892
:1033B000292063616C6C6564210020636F6C64205C
:1033C000657874727573696F6E2070726576656E5C
:1033D00074656400636865636B73756D206D6973F4
:1033E0006D617463682C204C617374204C696E6548
:1033F0003A200043485942413A004552524F523A0E
:1034000000456E642066696C65206C697374006F9A
:1034100070656E0054524947474552454400656EF9
:103420006473746F7073206869743A2000536C651C
:1034300065702E2E2E005679706E6F7574206D6F2C
:10344000746F72790044697361626C65207374658E
:103450007070657273004E65706C61746E65206883
:103460006F646E6F7479206E6173746176656E69D6
:103470002E204275646520706F757A69746F2076AE
:103480007963686F7A69205049442C2045737465CC
:103490007073206174642E004F6C642073657474C3
:1034A000696E677320666F756E642E204465666171
:1034B000756C74205049442C2045737465707320DA
:1034C0006574632E2077696C6C2062652073657467
:1034D0002E00446174756D3A00446174653A005081
:1034E0006F757A6520616B7475616C6E69004375E8
:1034F0007272656E74001B5B324A504F5A4F523ADB
:103500001B5B313B304843726173682064657465AE
:103510006B63651B5B323B30486465616B74697635
:103520006F76616E612076651B5B333B3048537468
:1035300065616C7468206D6F6475001B5B324A575F
:1035400041524E494E473A1B5B313B304843726112
:10355000736820646574656374696F6E1B5B323BCE
:10356000304864697361626C656420696E1B5B330B
:103570003B3048537465616C7468206D6F646500FE
:103580001B5B324A437261736820646574656B63C8
:1035900065206D757A651B5B313B3048627974201C
:1035A0007A61706E75746120706F757A6520761B14
:1035B0005B323B30484E6F726D616C206D6F64758D
:1035C000001B5B324A4372617368206465746563F3
:1035D00074696F6E2063616E1B5B313B30486265BE
:1035E000207475726E6564206F6E206F6E6C79202A
:1035F000696E1B5B323B30484E6F726D616C206DA3
:103600006F646500446574656B6F76616E206E61F2
:1036100072617A2E00437261736820646574656319
:103620007465642E004372617368206465742E2093
:10363000205B7A61705D0043726173682064657419
:103640002E2020205B6F6E5D0043726173682064E2
:1036500065742E20205B7679705D0043726173681B
:10366000206465742E20205B6F66665D0043726186
:103670007368206465742E20205B4E2F415D00200E
:10368000436F756E7420583A200056796D656E61EF
:10369000206F6B3F004368616E67656420636F72E3
:1036A000726563746C793F005A63686C6164697415
:1036B00000436F6F6C646F776E0050726F2075738C
:1036C0007065736E6F75206B616C6962726163699E
:1036D000206F636973746574652070726F73696DB0
:1036E000207469736B6F766F7520747279736B7564
:1036F0002E20506F74767264746520746C616369F7
:10370000746B656D2E00506C6561736520636C652C
:10371000616E20746865206E6F7A7A6C6520666FC2
:10372000722063616C6962726174696F6E2E2043EE
:103730006C69636B207768656E20646F6E652E0020
:10374000204C61737420557064617465643A200084
:1037500056796265727465206578747275646572F5
:103760003A0043686F6F736520657874727564659D
:10377000723A0050726F73696D206F74657672656E
:1037800074652069646C65722061206D616E75617D
:103790006C6E65206F64737472616E746520666907
:1037A0006C616D656E742E00506C65617365206F81
:1037B00070656E2069646C657220616E642072654C
:1037C0006D6F76652066696C616D656E74206D61E4
:1037D0006E75616C6C792E005A6D656E6120757323
:1037E0007065736E6121004368616E676520737553
:1037F000636365737321005661726F76616E693A17
:1038000020646F736C6F206B65207A6D656E652028
:1038100074797075207469736B61726E792E0057BC
:1038200061726E696E673A207072696E746572209B
:1038300074797065206368616E6765642E005661F7
:10384000726F76616E693A20646F736C6F206B657E
:10385000207A6D656E652074797075206D6F74685F
:103860006572626F617264752E005761726E696E67
:10387000673A206D6F74686572626F61726420745C
:10388000797065206368616E6765642E00566172A9
:103890006F76616E693A20646F736C6F206B652080
:1038A0007A6D656E652074797075207469736B61CB
:1038B000726E792061206D6F74686572626F6172DB
:1038C00064752E005761726E696E673A20626F747C
:1038D00068207072696E74657220747970652061F9
:1038E0006E64206D6F74686572626F6172642074BB
:1038F000797065206368616E6765642E0054697332
:103900006B207A205344005072696E742066726F87
:103910006D205344005465706C6F742E206B616C85
:103920006962726163650054656D702E2063616C1D
:103930006962726174696F6E004B616C6962727565
:103940006A69205A0043616C6962726174696E67CA
:10395000205A005A6B616C6962726F766174004321
:10396000616C696272617465005265736574205898
:10397000595A206B616C6962722E005265736574CE
:103980002058595A2063616C6962722E004B616C39
:103990006962726163652058595A0043616C6962BB
:1039A000726174652058595A002042726F776E20F8
:1039B0006F757420526573657400426567696E2087
:1039C00066696C65206C697374004B616C69627226
:1039D0006163652058595A206E65707265736E6117
:1039E0002E204C65767920707265646E6920626F56
:1039F00064206D6F63207670726564752E0058596F
:103A00005A2063616C6962726174696F6E20636FC2
:103A10006D70726F6D697365642E204C65667420DD
:103A200066726F6E742063616C6962726174696F33
:103A30006E20706F696E74206E6F742072656163A2
:103A40006861626C652E004B616C696272616365CE
:103A50002058595A206E65707265736E612E205021
:103A60007265646E69206B616C69627261636E6914
:103A700020626F6479206D6F632076707265647563
:103A80002E0058595A2063616C6962726174696FC3
:103A90006E20636F6D70726F6D697365642E204662
:103AA000726F6E742063616C6962726174696F6EAB
:103AB00020706F696E7473206E6F7420726561631D
:103AC0006861626C652E004B616C6962726163654E
:103AD0002058595A207620706F7261646B752E20C1
:103AE000582F59206F7379206D69726E65207A6B3B
:103AF0006F73656E652E20446F6272612070726113
:103B00006365210058595A2063616C69627261745F
:103B1000696F6E20616C6C2072696768742E205822
:103B20002F5920617865732061726520736C696715
:103B300068746C7920736B657765642E20476F6FAE
:103B400064206A6F6221004B616C69627261636517
:103B50002058595A207620706F7261646B752E2040
:103B60005A6B6F73656E6920627564652061757448
:103B70006F6D617469636B79207679726F766E61AF
:103B80006E6F20707269207469736B752E005859BE
:103B90005A2063616C6962726174696F6E20616C36
:103BA0006C2072696768742E20536B657720776983
:103BB0006C6C20626520636F72726563746564204B
:103BC0006175746F6D61746963616C6C792E004B03
:103BD000616C6962726163652058595A2073656C23
:103BE00068616C612E204B616C69627261636E6901
:103BF00020626F6420706F646C6F7A6B79206E65E1
:103C00006E616C657A656E2E0058595A2063616C3E
:103C10006962726174696F6E206661696C65642E99
:103C2000204265642063616C6962726174696F6EC1
:103C300020706F696E7420776173206E6F742066D8
:103C40006F756E642E004B616C69627261636520F2
:103C500058595A207620706F7261646B752E205807
:103C60002F59206F7379206A736F75206B6F6C6D9D
:103C7000652E2047726174756C756A692100585908
:103C80005A2063616C6962726174696F6E206F6B38
:103C90002E20582F5920617865732061726520703D
:103CA000657270656E646963756C61722E20436F16
:103CB0006E67726174756C6174696F6E7321004B0D
:103CC000616C6962726163652058595A2073656C32
:103CD00068616C612E204E61686C65646E65746508
:103CE00020646F206D616E75616C752E0058595A95
:103CF0002063616C6962726174696F6E20666169CC
:103D00006C65642E20506C6561736520636F6E7303
:103D1000756C7420746865206D616E75616C2E0021
:103D20004B616C6962726163652058595A207365F2
:103D30006C68616C612E204C6576792070726564C8
:103D40006E6920626F64206D6F63207670726564A7
:103D5000752E2053726F766E656A74652074697370
:103D60006B61726E752E0058595A2063616C6962DE
:103D7000726174696F6E206661696C65642E204C97
:103D80006566742066726F6E742063616C6962721E
:103D90006174696F6E20706F696E74206E6F74202D
:103DA000726561636861626C652E004B616C69626B
:103DB000726163652058595A2073656C68616C6143
:103DC0002E20507265646E69206B616C696272614D
:103DD000636E6920626F6479206D6F632076707204
:103DE0006564752E2053726F766E656A74652074F3
:103DF00069736B61726E752E0058595A2063616C3D
:103E00006962726174696F6E206661696C65642EA7
:103E10002046726F6E742063616C696272617469AE
:103E20006F6E20706F696E7473206E6F7420726590
:103E300061636861626C652E004B616C69627261DE
:103E40006365205A2073656C68616C612E20536530
:103E50006E736F72206A65206F64706F6A656E7929
:103E6000206E65626F20707265727573656E792061
:103E70006B6162656C2E2043656B616D206E612005
:103E800072657365742E00426564206C6576656C9E
:103E9000696E67206661696C65642E2053656E7378
:103EA0006F7220646973636F6E6E656374656420FE
:103EB0006F72206361626C652062726F6B656E2E3B
:103EC0002057616974696E6720666F72207265732E
:103ED00065742E004B616C696272616365205A20C3
:103EE00073656C68616C612E2053656E736F722010
:103EF0006E657365706E756C2E205A6E656369739E
:103F000074656E6120747279736B613F2043656BD9
:103F1000616D206E612072657365742E0042656468
:103F2000206C6576656C696E67206661696C656496
:103F30002E2053656E736F72206469646E742074F2
:103F40007269676765722E20446562726973206FBB
:103F50006E206E6F7A7A6C653F2057616974696E66
:103F60006720666F722072657365742E004B616CFA
:103F7000696272616365205A2073656C68616C6167
:103F80002E2053656E736F72207365706E756C2092
:103F90007072696C6973207679736F6B6F2E204332
:103FA000656B616D206E612072657365742E0042D1
:103FB0006564206C6576656C696E67206661696C06
:103FC00065642E2053656E736F7220747269676723
:103FD0006572656420746F6F20686967682E20576A
:103FE000616974696E6720666F72207265736574AB
:103FF0002E005A6168726976616E6920707265720E
:104000007573656E6F2062657A7065636E6F737429
:104010006E696D206361736F766163656D2E004814
:10402000656174696E672064697361626C656420A0
:104030006279207361666574792074696D65722E8A
:10404000005A6168726976616E6920626564004237
:1040500065642048656174696E6700426564204F3D
:104060004B2E0042656420646F6E6500567072616D
:10407000766F205B756D5D005269676874207369A7
:1040800064655B756D5D00526573657400567A6199
:10409000647520205B756D5D0052656172207369E7
:1040A0006465205B756D5D004B6F72656B636520A9
:1040B000706F646C6F7A6B7900426564206C657612
:1040C000656C20636F727265637400566C65766F01
:1040D00020205B756D5D004C6566742073696465B6
:1040E000205B756D5D00567072656475205B756D43
:1040F0005D0046726F6E7420736964655B756D5DFB
:1041000000426564004E656E69207A6B616C69627D
:10411000726F76616E6120767A64616C656E6F7322
:104120007420747279736B79206F64207469736B77
:104130006F766520706F646C6F7A6B792E20506F8C
:1041400073747570756A74652070726F73696D2011
:10415000706F646C65206D616E75616C752C206B81
:10416000617069746F6C61205A6163696E616D651D
:104170002C206F64737461766563204E6173746183
:1041800076656E69207072766E69207672737476C9
:10419000792E0044697374616E636520626574777B
:1041A00065656E20746970206F6620746865206E86
:1041B0006F7A7A6C6520616E642074686520626530
:1041C00064207375726661636520686173206E6F29
:1041D00074206265656E20736574207965742E2085
:1041E000506C6561736520666F6C6C6F77207468C6
:1041F00065206D616E75616C2C20636861707465FB
:10420000722046697273742073746570732C207306
:10421000656374696F6E204669727374206C61798E
:1042200065722063616C6962726174696F6E2E00E1
:10423000446F6C6164656E69206F7379205A004C1D
:104240006976652061646A757374205A0041646AF6
:10425000757374696E67205A004175746F20686FBA
:104260006D65004175746F5A61766564656E69208D
:1042700066696C2E004175746F4C6F6164206669CD
:104280006C616D656E74004175746F6D6174696306
:104290006B65207A61766164656E692066696C6120
:1042A0006D656E747520646F737475706E652070C3
:1042B0006F757A6520707269207A61706E757465A9
:1042C0006D2066696C616D656E742073656E7A6FC2
:1042D00072752E2E2E004175746F6C6F6164696E5D
:1042E000672066696C616D656E7420617661696CCA
:1042F00061626C65206F6E6C79207768656E2066F0
:10430000696C616D656E742073656E736F72206980
:1043100073207475726E6564206F6E2E2E2E0041B0
:1043200075746F6D617469636B65207A6176616421
:10433000656E692066696C616D656E747520616B70
:104340007469766E692C20737469736B6E6574651D
:1043500020746C616369746B6F206120766C6F7A76
:1043600074652066696C616D656E742E2E2E004139
:1043700075746F6C6F6164696E672066696C616DDE
:10438000656E74206973206163746976652C206A98
:1043900075737420707265737320746865206B6E1A
:1043A0006F6220616E6420696E7365727420666945
:1043B0006C616D656E742E2E2E00207C204175740C
:1043C000686F723A200056736500416C6C0041635F
:1043D000746976652045787472756465723A200058
:1043E0004A0D3A0D5E0D660D6E0D770D7F0D9C0D1D
:1043F000870DB50DB10DB90DC10DDA0DC90D050E45
:10440000EB0D5B0E230EB90E990E3D0FDC0E4B101B
:10441000A00F4211FF10E8118F119B122F124613AB
:10442000FA12DA1397132B14171499143F1430153A
:10443000E1149E157A15D315BE15F615E71541162C
:104440001316CC166F162C1733174D174317741706
:104450005917BC179417F117DF17021827181318EC
:104460005A1839188B187A18AD189B18C018D91813
:10447000D318DE18F018021964194919951983190F
:10448000B919A719401ACB19C41AAF1AE11AD91AC7
:10449000F51AED1A0B1BFD1A161B201B501B341BA3
:1044A0007D1B6B1BA11B8F1BC11BB31BE61BD41BEE
:1044B000051CF71B201C131C3E1C311C741C4B1CC0
:1044C000A81C9F1CC01CAE1CE41CD21C081DF61CA2
:1044D0002A1D1A1D381D571D481D751D641D931D6D
:1044E000841DB21DA01DCD1DC31DE51DD61DFC1DC7
:1044F000F21D041E251E161E3F1E301E4E1E6A1E75
:104500005B1E781E7E1EA21E901EBB1EB31ECE1EFC
:10451000C41EED1EDB1E0E1FFD1E291F171F471F89
:104520003B1F6A1F551F7B1F8C1F9C1FA51FC21F8F
:10453000AD1FE51FD31F0920F71F2D201B20512081
:104540003F207420632098208620BC20AA20E020F1
:10455000CE20F2200921FF20192115211E21422100
:1045600030216621542178218A219D21B321A52162
:10457000C021D221E6210422F62112221F222D225F
:104580003B2251225C227922722291228022AF2288
:10459000A022C922BE22D6220823DF22572330239D
:1045A0008E237923C523A323FB23EA231E240D2472
:1045B0003B2430245724472472246424B1248024CB
:1045C0000F25DA244F253A257625622594258A255C
:1045D0009C25B325A425E525BF251E2605263626C0
:1045E00075264D26AA269A26CC26B826F226E0263F
:1045F0001227042732272227C5273E275B285E285B
:1046000062287A286B288C288528A6289328CB280E
:10461000BA28E028DD28F828E328232908294E298C
:104620004329602955297229672979298F298229E7
:104630009929B229AB29C329BB29DA29D029F22922
:10464000E629032AFE29322A092A722A622A902A96
:10465000812A952AAC2AC32ADA2A0A2BF32A202B8C
:10466000372B4E2B782B652B952B852BB62BA32B1D
:10467000D52BC72BE92BE32BFC2BEF2B142C0C2C6D
:104680001C2C252C462C362C622C562C7B2C6E2C6C
:10469000872CA12C952CBC2CAF2CDA2CCD2CF42CF7
:1046A000E62C0C2D022D4D2D142DA22D902DC62D56
:1046B000B42DEA2DD82D0E2EFC2D322E202E562E66
:1046C000442E682EB52E772E682FF52EDD2FD62F8F
:1046D000F52FE22F0E30093033301430533065306F
:1046E000983078300B31BA306D315C31A0317D318A
:1046F000DA31C931F931EA31153203323932273230
:104700004B3256325D32673270328032F6322033AD
:104710004A3368339B33BA33D433FA33F333013437
:104720000F3414341E342D34453436349834563412
:10473000D934D234EE34DF343B35F634C1358035EC
:1047400015360436373625365B3649366D367F36B4
:1047500095368A36B136A8360637BA3640376237CC
:104760005037A8377337E737D8371F38F7376A38E5
:104770003E38C4388D380739FD3827391539453961
:1047800039395F3953397B3969399B398D39A939C1
:10479000BA39FE39CA39823A473A043BC73A8E3BA6
:1047A000473B093CCF3B7E3C463CED3CBF3C673D34
:1047B000203DF93DAB3D873E393E1D3FD43EAF3FE6
:1047C0006D3F1F40F23F4F40414063405B407840A7
:1047D0006C40874099408D40B940A840D740CB40BD
:1047E000F240E6400141934105413F4230424D4293
:1047F000594275426342D64287426F431F43BA43D0
:10480000CA43C643CE430000211042206330844097
:10481000A550C660E770088129914AA16BB18CC18F
:10482000ADD1CEE1EFF13112100273325222B55206
:104830009442F772D662399318837BB35AA3BDD3DF
:104840009CC3FFF3DEE36224433420040114E664D6
:10485000C774A44485546AA54BB528850995EEE52F
:10486000CFF5ACC58DD55336722611163006D776E6
:10487000F6669556B4465BB77AA719973887DFF77F
:10488000FEE79DD7BCC7C448E5588668A7784008AE
:10489000611802282338CCC9EDD98EE9AFF94889CF
:1048A00069990AA92BB9F55AD44AB77A966A711A46
:1048B000500A333A122AFDDBDCCBBFFB9EEB799B1F
:1048C000588B3BBB1AABA66C877CE44CC55C222C96
:1048D000033C600C411CAEED8FFDECCDCDDD2AAD6F
:1048E0000BBD688D499D977EB66ED55EF44E133E26
:1048F000322E511E700E9FFFBEEFDDDFFCCF1BBFBF
:104900003AAF599F788F8891A981CAB1EBA10CD198
:104910002DC14EF16FE18010A100C230E3200450A0
:10492000254046706760B9839893FBA3DAB33DC313
:104930001CD37FE35EF3B1029012F322D2323542F0
:10494000145277625672EAB5CBA5A89589856EF5A3
:104950004FE52CD50DC5E234C324A0148104667440
:10496000476424540544DBA7FAB79987B8975FE7F3
:104970007EF71DC73CD7D326F2369106B016576690
:104980007676154634564CD96DC90EF92FE9C8997B
:10499000E9898AB9ABA94458654806782768C018E0
:1049A000E1088238A3287DCB5CDB3FEB1EFBF98B53
:1049B000D89BBBAB9ABB754A545A376A167AF10A30
:1049C000D01AB32A923A2EFD0FED6CDD4DCDAABD63
:1049D0008BADE89DC98D267C076C645C454CA23C80
:1049E000832CE01CC10C1FEF3EFF5DCF7CDF9BAF33
:1049F000BABFD98FF89F176E367E554E745E932ED0
:104A0000B23ED10EF01E256920686F7572732025A5
:104A100069206D696E757465730054494D454F5535
:104A2000543A004D3131300046756C6C205258209C
:104A30004275666665720022206661696C65643A3B
:104A4000204275666665722066756C6C2100456E45
:104A5000717565696E6720746F2074686520667271
:104A60006F6E743A2022002200456E717565696E82
:104A70006720746F207468652066726F6E743A20C8
:104A8000220022206661696C65643A204275666680
:104A900065722066756C6C21002200457872656D28
:104AA00065207370616E206F6620746865205A20DF
:104AB00076616C7565732100203C20005741524E91
:104AC000494E473A2046726F6E7420706F696E745B
:104AD000206E6F7420726561636861626C652E2060
:104AE0005920636F6F7264696E6174653A000049A2
:104AF0007465726174696F6E3A200000004041FE77
:104B0000FF7F400000E442FEFF7F4000005743FE6D
:104B1000FF7F40000057430000C8420000E442000D
:104B200000C842000040410000C84200004041006F
:104B30000044430000E442000044430000574300A7
:104B400000444300004041FEFF7F4000005C43FE04
:104B5000FF7F4000005C43000044430000404100F0
:104B60000044434572723A204D494E54454D502001
:104B70004245440054656D706572617475726520BC
:104B80006865617465642062656420737769746325
:104B9000686564206F66662E204D494E54454D5021
:104BA00020747269676765726564202100457272BE
:104BB0003A204D415854454D5020424544005465DB
:104BC0006D70657261747572652068656174656485
:104BD00020626564207377697463686564206F661A
:104BE000662E204D415854454D50207472696767B8
:104BF000657265642021004572723A204D494E5419
:104C0000454D50003A204578747275646572207382
:104C100077697463686564206F66662E204D494E1F
:104C200054454D5020747269676765726564202130
:104C3000004572723A204D415854454D50003A207B
:104C400045787472756465722073776974636865FA
:104C500064206F66662E204D415854454D50207497
:104C6000726967676572656420210020484F54456A
:104C70004E4420544845524D414C2052554E4157C8
:104C8000415900204845415442454420544845522A
:104C90004D414C2052554E415741590054484552C0
:104CA0004D414C2052554E415741590042454420F8
:104CB000544845524D414C2052554E4157415900A0
:104CC00020544845524D414C2052554E4157415970
:104CD0002028205052454845415420484F54454EC5
:104CE00044290020544845524D414C2052554E41D4
:104CF00057415920282050524548454154204845A5
:104D000041544245442900505245484541542045AC
:104D100052524F520042454420505245484541545A
:104D2000204552524F52004572723A205052494E1D
:104D3000542046414E204552524F52005072696EE7
:104D4000742066616E207370656564206973206CE1
:104D50006F776572207468656E206578706563741E
:104D60006564004572723A20455854522E204641DF
:104D70004E204552524F52004578747275646572E8
:104D80002066616E207370656564206973206C6FA6
:104D9000776572207468656E2065787065637465E8
:104DA00064002F2F20616374696F6E3A70617573B0
:104DB0006500504944204175746F74756E652066B6
:104DC000696E697368656421205075742074686524
:104DD000206C617374204B702C204B6920616E64D1
:104DE000204B6420636F6E7374616E7473206672FF
:104DF0006F6D2061626F766520696E746F20436FFE
:104E00006E66696775726174696F6E2E68005049CD
:104E100044204175746F74756E65206661696C65B8
:104E200064212074696D656F75740020403A0054E8
:104E30003A00423A00504944204175746F74756ECF
:104E400065206661696C6564212054656D706572CA
:104E5000617475726520746F6F20686967680020DF
:104E60004B643A2000204B693A2000204B703A20D6
:104E70000020436C61737369632050494420002013
:104E800054753A2000204B753A2000206D61783A25
:104E90002000206D696E3A200020643A20002062D4
:104EA0006961733A200090137D00B0157800F01707
:104EB0007300601A6E00F01C6900A01F640050228D
:104EC0005F0020255A00E0275500902A5000202D31
:104ED0004B00A02F4600F031410010343C00F0356B
:104EE0003700A037320020392D00603A2800703B8F
:104EF0002300603C1E00203D1900C03D1400403ED0
:104F00000F00A03E0A00F03E0500403F0000703F49
:104F1000FBFF903FF6FFB03FF1FFC03FECFFD03FFB
:104F2000E7FFE03FE2FFF03FDDFFF03FD8FF10007A
:104F3000C90210012C014001220170011801B001C9
:104F40000E01F00104015002FA00B002F00030033B
:104F5000E600D003DC009004D2007005C800A00673
:104F6000BE000008B400B009AA00D00BA000600E7B
:104F7000960060118C000015820020197800C01D79
:104F80006E00A0226400B0275A00902C500000311F
:104F90004600E0343C0010383200903A2800603C73
:104FA0001E00A03D1400803E0A00203F000070015A
:104FB0002C0190012701B0012201C0011D01F00167
:104FC00018011002130130020E0160020901900263
:104FD0000401C002FF000003FA004003F500800353
:104FE000F000D003EB002004E6007004E100E004D0
:104FF000DC004005D700C005D2004006CD00D00639
:10500000C8008007C3003008BE00F008B900C0091E
:10501000B400B00AAF00B00BAA00D00CA500000E7F
:10502000A000500F9B00C010960050129100001479
:105030008C00C0158700B0178200B0197D00D01B0E
:105040007800001E730040206E0090226900F0245A
:10505000640040275F0090295A00E02B5500102E75
:10506000500020304B0010324600E03341009035B4
:105070003C001037370070383200A0392D00B03AAC
:105080002800A03B2300603C1E00103D1900903D0D
:105090001400103E0F00703E0A00C03E0500003FA5
:1050A0000000706F696E743D256420783D25642092
:1050B000793D2564207A3D25640A0078797A636118
:1050C0006C5F66696E645F6265645F696E64756378
:1050D00074696F6E5F73656E736F725F706F696E08
:1050E000745F787920783D256C6420793D256C6467
:1050F000207A3D256C640A0020783D256420793DA6
:105100002564207A3D25640A0020706174746572FC
:105110006E20666F756E642061742025642025649E
:105120000A0073697A656F6628746F74616C293D33
:1051300025640A0073697A656F6628626C6F636B19
:105140005F627566666572293D25640A0078797A22
:1051500063616C5F7365617263685A206E6F207360
:1051600069676E616C0A20783D256C6420793D2565
:105170006C64207A3D256C640A00204F4E2D534903
:10518000474E414C20617420783D256420793D25AF
:1051900064207A3D25642061643D25640A007879A5
:1051A0007A63616C5F7365617263685A20783D252C
:1051B0006C6420793D256C64207A3D256C640A007E
:1051C0002079303D25640A002078303D25640A00AE
:1051D0004F4B0A004552524F522061643D25640AEC
:1051E000002020207A303D25640A00207A303D25B9
:1051F000640A002079303D25640A002078303D257E
:10520000640A0078797A63616C5F66696E645F70C6
:105210006F696E745F63656E746572320A006D61EA
:10522000785F633D2564206D61785F723D25642061
:105230006D61785F6D617463683D25640A000A00E2
:105240002530327800206D696E3D2564206D6178CF
:105250003D2564206469663D25640A006D61785FC0
:10526000633D253264206D61785F6C3D25640A00E2
:10527000202532642025640A000A00253032780097
:1052800078797A63616C5F7363616E5F706978656A
:105290006C735F33327833322063783D256420634A
:1052A000793D2564206D696E5F7A3D2564206D61CE
:1052B000785F7A3D25640A0078797A63616C5F7360
:1052C000706972616C382063783D25642063793D94
:1052D0002564207A303D256420647A3D256420725F
:1052E00061646975733D25642061643D25640A002D
:1052F00078797A63616C5F73706972616C32206374
:10530000783D25642063793D2564207A303D25640D
:1053100020647A3D2564207261646975733D25645B
:105320002061643D25640A0078797A63616C5F6D61
:10533000656173737572655F6C656176650A007887
:10534000797A63616C5F6D656173737572655F65B2
:105350006E7465720A000000F000F801FC03FE079D
:10536000FE07FE07FE07FC03F801F00000005802EC
:105370005802584D584DB004F055F055B0044861EE
:105380007264636F6465642044656661756C742043
:1053900053657474696E6773204C6F616465640053
:1053A00053746F7265642073657474696E677320DB
:1053B00072657472696576656400202020452F440B
:1053C000203D20002020204D393030204B004C69FA
:1053D0006E65617220616476616E636520736574C9
:1053E00074696E67733A0046696C616D656E74200E
:1053F00073657474696E67733A2044697361626C93
:105400006564002020204D32303020440046696C15
:10541000616D656E742073657474696E67733A00AC
:105420002020204D3230392053004175746F2D52A9
:105430006574726163743A20533D3020746F206448
:10544000697361626C652C203120746F20696E7401
:1054500065727072657420657874727564652D6FFD
:105460006E6C79206D6F7665732061732072657440
:105470007261637473206F72207265636F766572F8
:10548000696573002046002020204D3230382053BB
:10549000005265636F7665723A20533D45787472A9
:1054A00061206C656E67746820286D6D2920463A0E
:1054B000537065656420286D6D2F6D2900205A009A
:1054C0002046002020204D32303720530052657492
:1054D000726163743A20533D4C656E67746820288E
:1054E0006D6D2920463A537065656420286D6D2FD7
:1054F0006D29205A3A205A4C69667420286D6D290E
:10550000002044002049002020204D33303420501A
:105510000050494420686561746265642073657455
:1055200074696E67733A00204400204900202020EF
:105530004D333031205000504944207365747469F4
:105540006E67733A00205A0020590020204D3230F7
:1055500036205800486F6D65206F6666736574204D
:10556000286D6D293A00204500205A00205900205E
:10557000580020420020540020204D323035205366
:1055800000416476616E6365642076617269616270
:105590006C65733A20533D4D696E20666565647293
:1055A00061746520286D6D2F73292C20543D4D6941
:1055B0006E2074726176656C2066656564726174D4
:1055C0006520286D6D2F73292C20423D6D696E6911
:1055D0006D756D207365676D656E742074696D659A
:1055E00020286D73292C20583D6D6178696D756D8B
:1055F000205859206A65726B20286D6D2F73292CF5
:1056000020205A3D6D6178696D756D205A206A655C
:10561000726B20286D6D2F73292C2020453D6D6104
:1056200078696D756D2045206A65726B20286D6DF7
:105630002F73290020540020204D32303420530095
:10564000416363656C65726174696F6E3A20533DA6
:10565000616363656C65726174696F6E2C20543D83
:105660007265747261637420616363656C657261F5
:1056700074696F6E00204500205A002059002020D8
:105680004D3230312058004D6178696D756D204183
:105690006363656C65726174696F6E20286D6D2F30
:1056A0007332293A00204500205A0020590020205A
:1056B0004D3230332058004D6178696D756D20662C
:1056C000656564726174657320286D6D2F73293A66
:1056D00000204500205A0020590020204D3932205A
:1056E000580053746570732070657220756E69740C
:1056F0003A0053657474696E67732053746F7265F2
:105700006400454550524F4D204572726F720072D1
:105710006573756C742076616C75653A2025640A32
:105720000020693D25326420636E743D253264207B
:1057300076616C3D2532640A00636C757374657222
:10574000733A0A0020693D25326420737465703D08
:105750002532640A00736F727465642073616D7022
:105760006C65733A0A0020666163746F723A202593
:10577000730A00746D63323133305F7365745F7721
:10578000617665202568686420256868640A00746D
:105790006D63323133305F676F746F5F7374657040
:1057A000202564202564202564202564200A0074B7
:1057B0006D63323133305F7072696E745F6375721E
:1057C00072656E747328290A094809520A58092516
:1057D000640925640A590925640925640A5A0925BA
:1057E000640925640A450925640925640A00746D65
:1057F00063323133305F7365745F63757272656EE7
:10580000745F7228617869733D25642C206375721A
:1058100072656E743D25640A00746D6332313330F5
:105820005F7365745F63757272656E745F6828611B
:105830007869733D25642C2063757272656E743DC2
:1058400025640A00544D4320445249564552204F86
:1058500056455254454D502000746D6332313330FB
:105860005F686F6D655F6578697420746D63323150
:1058700033305F73675F686F6D696E675F6178650E
:10588000735F6D61736B3D3078253032780A007438
:105890006D63323133305F686F6D655F656E74655F
:1058A0007228617865735F6D61736B3D3078253068
:1058B0003278290A00746D63323133305F696E6962
:1058C0007428292C206D6F64653D25530A004E4FC6
:1058D000524D414C00535445414C5448005A00200D
:1058E0005A3A00590020593A00580020583A0024EA
:1058F000F4D43050C38E20C2A24017828B70111294
:105900007A910D816CD90AA861E108C758660761D0
:105910005143061E4B5D05C145A7041A41110409F8
:105920003D9803713931034036DB0265339102D46F
:10593000305402802E1D02632CEE01752AC501B081
:1059400028A001102781018F2564012B244B01E041
:10595000223401AC211F018D200D01801FFC008429
:105960001EED00971DDF00B81CD200E61BC600200C
:105970001BBC00641AB200B219A8000A19A0006A80
:10598000189900D117910040178B00B5168400318B
:10599000167E00B31579003A157300C7146F0058CE
:1059A000146A00EE1366008813630025135E00C7B7
:1059B000125B006C12570015125400C11151007097
:1059C000114F0021114B00D61049008D10470046A1
:1059D00010440002104200C00F4000800F3E004201
:1059E0000F3C00060F3B00CB0E3800930E37005CD7
:1059F0000E3500270E3400F30D3200C10D3100903A
:105A00000D3000600D2E00320D2D00050D2C00D93B
:105A10000C2B00AE0C2900850C29005C0C270035EE
:105A20000C27000E0C2600E80B2400C40B2400A059
:105A30000B23007D0B23005A0B2100390B2100188A
:105A40000B2000F80A1F00D90A1E00BB0A1E009D89
:105A50000A1D00800A1D00630A1C00470A1B002C57
:105A60000A1B00110A1A00F7091A00DD091900C4FF
:105A7000091900AB091900920917007B0918006386
:105A80000917004C09160036091600200916000AED
:105A9000091500F5081500E0081400CC081400B83A
:105AA000081400A4081400900813007D0812006B6D
:105AB0000813005808120046081200340811002389
:105AC0000811001208110001081100F0071000E091
:105AD000071000D0071000C0071000B0070F00A18A
