:100000000C9475330C94A6330C94A6330C94A6333D
:100010000C94A6330C9457D80C94A6330C94A633A6
:100020000C945BDB0C94A6330C94A6330D94C42083
:100030000C94A6330D94AB220C94A6330C94A633E7
:100040000C94A6330D94967B0C94A6330C94A63393
:100050000C94A6330C94A6330C94DC8A0D945C2487
:100060000C94A6330D94B8650C94A6330C94A63367
:100070000C94A6330C94A6330C94A6330C94A6339C
:100080000C94A6330C94A6330C94A6330C94A6338C
:100090000D9474650C94A6330C94A6330C94A6337B
:1000A0000C94A6330C94A6330C94A6330C94A6336C
:1000B0000C94A6330C94A6330C94A6330C94A6335C
:1000C0000C94A6330C94A6330C94A6330C94A6334C
:1000D0000C94A6330C94A6330C94A6330C94A6333C
:1000E0000C94A633119B299B309B4E9B779B7E9B48
:1000F0008A9BA79BBF9BDC9B089C380158013E0153
:100100007C01DE015601D8018A014E016201E00145
:100110006E01B20164017201720172015A015A0149
:100120005A013A0194015A0170013C012801C801A9
:10013000CE01B60196018601A80182014001460167
:10014000BC01AC012C0196014C01D4014A01B00163
:1001500080016601AA01C201740176016A01C00131
:10016000A2014801900150017A017401DA01D6011F
:10017000CA015C0142016001AE01DC01C40154010D
:100180009E01084AD73B3BCE016E84BCBFFDC12F08
:100190003D6C74319ABD56833DDA3D00C77F11BE78
:1001A000D9E4BB4C3E916BAAAABE000000803F057B
:1001B000A84CCDB2D44EB93836A9020C50B99186AC
:1001C00088083CA6AAAA2ABE000000803F07634216
:1001D00036B79BD8A71A39685618AEBAAB558C1DDE
:1001E0003CB7CC5763BD6DEDFD753EF6177231BF60
:1001F000000000803F08000000BE922449123EAB80
:10020000AAAA2ABECDCCCC4C3E00000080BEABAA30
:10021000AAAA3E00000000BF000000803F000000CE
:100220000000084178D3BB4387D1133D190E3CC36E
:10023000BD4282AD2B3E68EC8276BED98FE1A93EED
:100240004C80EFFFBE01C4FF7F3F000000000000B4
:100250000D949C210D943E090D94C0210D94272BE3
:100260000D94084A0D9472910D94B28D0D943D96A3
:100270000D9447030D9459050D9499210D94700325
:100280000D94AE210D94FA660D946B8D0D94B221F0
:100290000D94B9230D94CE210D94C6210D94C5045F
:1002A0000D94D2230D940D4A0D9460670D94C503EF
:1002B0000D945E030D9477050D94F6660D940491EC
:1002C0000D94FF660D94D5040D9449050D94772384
:1002D0000D94A4620D949D230D94608C0D941005D3
:1002E0000D9463050D9451050D9404240D949523EC
:1002F0000D9453210D94DC230D9486030D94928963
:100300000D9472230D94AA210D9443850D94A02180
:100310000D9420970D9499040D94D0000D94CA84E7
:100320000D94C3230D9403330D9487050D94D321AD
:100330000D94B78B0D94C4660D94A3620D948D67D4
:100340000D94F9210D94AF230D940D8E0D94D7913A
:100350000D94A4210D9481230D94BC210D94076765
:100360000D946D230D9441050D94B9020D949521C2
:100370000D944D020D94E4A90D94B8210D945A02E8
:100380000D94A5230D948B230D9435670D94D69071
:100390000D948B210D94FA230D9403060D948F2157
:1003A0000D941A0D0D9404B60D94CA210D94F023EA
:1003B0000D94E1030D94E6230D941C670D949703AF
:1003C0000D94F2044E414E494E495459494E46CD82
:1003D000CCCC3D0AD7233C17B7D13877CC2B3295FC
:1003E00095E6241FB14F0A000020410000C84200DA
:1003F000401C4620BCBE4CCA1B0E5AAEC59D7400A4
:10040000407A10F35A00A0724E18090010A5D4E8E3
:100410000000E87648170000E40B54020000CA9A76
:100420003B000000E1F505000080969800000040C8
:10043000420F000000A0860100000010270000000D
:1004400000E803000000006400000000000A000053
:100450000000000100000000002C76D888DC674F07
:100460000823DFC1DFAE59E1B1B796E5E3E453C637
:100470003AE651997696E8E6C28426EB898C9B622F
:10048000ED407C6FFCEFBC9C9F40F2BAA56FA5F4D9
:1004900090055A2AF75C936B6CF9676DC11BFCE001
:1004A000E40D47FEF520E6B500D0ED902E03009454
:1004B0003577050080841E080000204E0A000000E9
:1004C000C80C333333330F986E12831141EF8D21F3
:1004D00014893BE65516CFFEE6DB18D1844B381B5A
:1004E000F77C1D901DA4BBE424203284725E22811F
:1004F00000C9F124ECA1E53D27446574656B6F7676
:10050000616E206E6172617A2E00437261736820A1
:1005100064657465637465642E0053442070726969
:100520006E74696E672062797465200050726F7313
:10053000696D20616B7475616C697A756A74652E7A
:1005400000506C6561736520757067726164652E1B
:10055000005679736C61206E6F7661207665727AD1
:1005600065206669726D776172653A004E65772025
:100570006669726D776172652076657273696F6EF8
:1005800020617661696C61626C653A006120737408
:1005900069736B6E65746520746C616369746B6FED
:1005A00000616E6420707265737320746865206BDF
:1005B0006E6F6200566C6F7A74652066696C616D4F
:1005C000656E7400496E736572742066696C616D46
:1005D000656E74004261727661206E656E6920639B
:1005E0006973746100436F6C6F72206E6F74206367
:1005F0006F72726563740046696C616D656E74201C
:100600006E657A61766564656E0046696C616D65DC
:100610006E74206E6F74206C6F616465640056792F
:100620006D656E61206F6B3F004368616E67656446
:1006300020636F72726563746C793F0043697374F1
:10064000656E69206261727679004C6F6164696ED3
:100650006720636F6C6F72005A6D656E61207573F1
:100660007065736E6121004368616E676520737504
:1006700063636573732100457874727564657200F5
:1006800056796265727465206578747275646572F6
:100690003A0043686F6F736520657874727564659E
:1006A000723A0041637469766520457874727564A6
:1006B00065723A2000496E76616C696420657874D1
:1006C00072756465720050726F73696D206F746526
:1006D00076726574652069646C65722061206D6155
:1006E0006E75616C6E65206F64737472616E746593
:1006F0002066696C616D656E742E00506C65617367
:1007000065206F70656E2069646C657220616E642F
:100710002072656D6F76652066696C616D656E74BB
:10072000206D616E75616C6C792E0042796C6F2062
:10073000767973756E7574692066696C616D656E26
:1007400074752075737065736E653F005761732013
:1007500066696C616D656E7420756E6C6F61642086
:100760007375636365737366756C3F0050726F7366
:10077000696D2076796A6D65746520757279636834
:100780006C656E652066696C616D656E7400506C99
:10079000656173652070756C6C206F757420666977
:1007A0006C616D656E7420696D6D656469617465F9
:1007B0006C79005679736F7576616D2066696C612E
:1007C0006D656E7400556E6C6F6164696E6720664E
:1007D000696C616D656E740050726F206E61687235
:1007E00061746920747279736B79206120706F6B0A
:1007F0007261636F76616E6920737469736B6E6585
:10080000746520746C616369746B6F2E005072653F
:100810007373206B6E6F6220746F207072656865F1
:100820006174206E6F7A7A6C6520616E6420636FEC
:100830006E74696E75652E0050726F2076797375CF
:100840006E7574692066696C616D656E7475207370
:100850007469736B6E6574652070726F73696D2057
:10086000746C616369746B6F00506C6561736520B3
:10087000707265737320746865206B6E6F6220748C
:100880006F20756E6C6F61642066696C616D656E5A
:1008900074005A204F666673657400556E6B6E6FF8
:1008A000776E20636F6D6D616E643A2022004D3269
:1008B000303020496E76616C696420657874727599
:1008C00064657220007A5F6D61783A20007A5F6D0E
:1008D000696E3A2000795F6D61783A2000795F6D2A
:1008E000696E3A2000785F6D61783A20006F70651C
:1008F0006E0054524947474552454400785F6D6940
:100900006E3A20005265706F7274696E6720656E72
:100910006473746F70207374617475730020436F17
:10092000756E7420583A20004649524D5741524541
:100930005F4E414D453A4D61726C696E2056312EC5
:10094000302E323B20537072696E7465722F67725D
:10095000626C206D617368757020666F72206765C8
:100960006E36204649524D574152455F55524C3ADA
:1009700068747470733A2F2F6769746875622E6398
:100980006F6D2F707275736133642F507275736160
:100990002D69332D506C75732F2050524F544F4397
:1009A0004F4C5F56455253494F4E3A312E30204DF1
:1009B000414348494E455F545950453A507275730A
:1009C00061206933204D4B332045585452554445DE
:1009D000525F434F554E543A3120555549443A30B1
:1009E000303030303030302D303030302D3030300D
:1009F000302D303030302D303030303030303030FD
:100A00003030300A004F666600456E642066696CBF
:100A100065206C69737400426567696E2066696C55
:100A200065206C697374004E6F206D6F76652E00C3
:100A30004F626E6F76656E69207469736B750052D4
:100A40006573756D696E67207072696E74005761A9
:100A5000697420666F7220757365722E2E2E004B9E
:100A6000616C696272616365205A2073656C6861AC
:100A70006C612E2053656E736F72207365706E7596
:100A80006C207072696C6973207679736F6B6F2E4E
:100A90002043656B616D206E612072657365742EF5
:100AA00000426564206C6576656C696E67206661DE
:100AB000696C65642E2053656E736F722074726961
:100AC00067676572656420746F6F20686967682E58
:100AD0002057616974696E6720666F722072657352
:100AE00065742E004B616C696272616365205A20E7
:100AF00073656C68616C612E2053656E736F722034
:100B00006A65206F64706F6A656E79206E65626FCA
:100B100020707265727573656E79206B6162656CA9
:100B20002E2043656B616D206E6120726573657464
:100B30002E00426564206C6576656C696E67206680
:100B400061696C65642E2053656E736F72206469F1
:100B500073636F6E6E6563746564206F722063618A
:100B6000626C652062726F6B656E2E2057616974CE
:100B7000696E6720666F722072657365742E004B14
:100B8000616C696272616365205A2073656C68618B
:100B90006C612E2053656E736F72206E6573657085
:100BA0006E756C2E205A6E6563697374656E612074
:100BB000747279736B613F2043656B616D206E6168
:100BC0002072657365742E00426564206C657665DD
:100BD0006C696E67206661696C65642E2053656E72
:100BE000736F72206469646E7420747269676765DC
:100BF000722E20446562726973206F6E206E6F7A68
:100C00007A6C653F2057616974696E6720666F7200
:100C10002072657365742E005465706C6F746E6914
:100C2000206B616C69627261636520646F6B6F6ECB
:100C300063656E612E20506F6B726163756A7465B7
:100C400020737469736B656D20746C616369746B78
:100C5000612E0054656D70657261747572652063F4
:100C6000616C6962726174696F6E20697320666974
:100C70006E69736865642E20436C69636B20746FC2
:100C800020636F6E74696E75652E004F64737472A5
:100C9000616E7465207469736B6F767920706C6116
:100CA00074207A20686561746265642070726F7365
:100CB000696D2E00506C656173652072656D6F768D
:100CC0006520737465656C20736865657420667251
:100CD0006F6D20686561746265642E005374616293
:100CE0006C6520616D6269656E742074656D7065F8
:100CF0007261747572652032312D3236432069730A
:100D0000206E65656465642061207269676964208E
:100D10007374616E642069732072657175697265A0
:100D2000642E00536C6565702E2E2E004352415385
:100D3000485F5245434F56455200473238205820AD
:100D400059000A05F9040A002F001A050A002E00AE
:100D500044656C6574696F6E206661696C65642CAE
:100D60002046696C653A200046696C652064656CB4
:100D7000657465643A002E0020573A0020453A0019
:100D8000543A0041052C05006C055105504944209A
:100D90004175746F74756E652066696E69736865F8
:100DA00064212050757420746865206C6173742010
:100DB0004B702C204B6920616E64204B6420636F64
:100DC0006E7374616E74732066726F6D2061626FF2
:100DD000766520696E746F20436F6E666967757201
:100DE0006174696F6E2E6800504944204175746FBC
:100DF00074756E65206661696C6564212074696D27
:100E0000656F75740020403A00543A00423A005031
:100E10004944204175746F74756E65206661696C14
:100E20006564212054656D7065726174757265200A
:100E3000746F6F206869676800204B643A20002057
:100E40004B693A2000204B703A200020436C6173BC
:100E50007369632050494420002054753A200020D3
:100E60004B753A2000206D61783A2000206D696E44
:100E70003A200020643A200020626961733A200021
:100E800053657474696E67732053746F7265640080
:100E900046696C616D656E742073657474696E6704
:100EA000733A2044697361626C6564002020204DB0
:100EB00032303020440046696C616D656E74207379
:100EC000657474696E67733A002020204D323039A2
:100ED0002053004175746F2D526574726163743ACA
:100EE00020533D3020746F2064697361626C652CFF
:100EF000203120746F20696E746572707265742081
:100F0000657874727564652D6F6E6C79206D6F767F
:100F10006573206173207265747261637473206FEE
:100F200072207265636F7665726965730020460092
:100F30002020204D3230382053005265636F766593
:100F4000723A20533D4578747261206C656E677407
:100F50006820286D6D2920463A5370656564202805
:100F60006D6D2F6D2900205A002046002020204D55
:100F7000323037205300526574726163743A2053E3
:100F80003D4C656E67746820286D6D2920463A5384
:100F90007065656420286D6D2F6D29205A3A205A9E
:100FA0004C69667420286D6D29002044002049009A
:100FB0002020204D333034205000504944206865B3
:100FC00061746265642073657474696E67733A0056
:100FD0002044002049002020204D33303120500093
:100FE0005049442073657474696E67733A00205ADF
:100FF0000020590020204D323036205800486F6DB7
:1010000065206F666673657420286D6D293A00202F
:101010004500205A0020590020580020420020544A
:101020000020204D323035205300416476616E63DC
:101030006564207661726961626C65733A20533D24
:101040004D696E20666565647261746520286D6DFA
:101050002F73292C20543D4D696E20747261766582
:101060006C20666565647261746520286D6D2F73F0
:10107000292C20423D6D696E696D756D2073656721
:101080006D656E742074696D6520286D73292C2040
:10109000583D6D6178696D756D205859206A65728B
:1010A0006B20286D6D2F73292C20205A3D6D61789F
:1010B000696D756D205A206A65726B20286D6D2FE1
:1010C00073292C2020453D6D6178696D756D204533
:1010D000206A65726B20286D6D2F732900205400E3
:1010E00020204D323034205300416363656C6572BB
:1010F0006174696F6E3A20533D616363656C65721C
:101100006174696F6E2C20543D72657472616374F2
:1011100020616363656C65726174696F6E00204560
:1011200000205A0020590020204D32303120580034
:101130004D6178696D756D20416363656C657261A1
:1011400074696F6E20286D6D2F7332293A00204527
:1011500000205A0020590020204D32303320580002
:101160004D6178696D756D20666565647261746541
:101170007320286D6D2F73293A00204500205A00F6
:1011800020590020204D3932205800537465707367
:101190002070657220756E69743A00A1058C05C4D3
:1011A00005B405E505D4050A06F70529061E064A15
:1011B000063C0667065806746D63323133305F7043
:1011C00072696E745F63757272656E747328290A32
:1011D000094809520A580925640925640A5909254C
:1011E000640925640A5A0925640925640A45092504
:1011F000640925640A0077069206800622283229AF
:1012000000A306B5065400496E76616C69642054EB
:1012100020636F64652E00556E6B6E6F776E204D88
:1012200020636F64653A202573200A004D32323006
:101230002053256900FB06C6064C072B078E076C5A
:1012400007C507B3070D08D80769083808203A20F2
:10125000000092084C414E472053454C20464F52C7
:101260004345440022283129009B08AE08C508CD1B
:1012700008D508DD08E508ED08F208FC0804092097
:10128000453A00205A3A0020593A001D0920453AB3
:1012900000205A3A0020593A00583A0028094D31A6
:1012A00031332053002E002000050A6E6F20766136
:1012B0006C696420636F6D6D616E6400206D6D3AC2
:1012C0000020756D3A00207573746570733A005490
:1012D0003A002C20002C20002C20006E2F61002CC6
:1012E00020002C20002C20006E2F61002F00503A8F
:1012F000005761697420666F722050494E44412046
:101300007461726765742074656D7065726174755F
:1013100072653A0020423A0020453A00543A0020D3
:10132000413A0020503A002042403A0020403A0022
:10133000202F003A00205400202F0020423A0020A5
:101340002F006F6B20543A002569206D696E2C20A8
:1013500025692073656300090A170A270A3F0A30C6
:101360000A4E0A496E76616C6964204D20636F6491
:10137000653A202573200A00556E6B6E6F776E20DC
:101380004720636F64653A202573200A004D65731A
:101390006820626564206C6576656C696E67206E96
:1013A0006F74206163746976652E000A0020200046
:1013B0000A4D6561737572656420706F696E747330
:1013C0003A000A5A2073656172636820686569672C
:1013D00068743A20002C004E756D20582C593A2024
:1013E00000206D6963726F6E730045786365737377
:1013F00069766520626564206C6576656C696E67E8
:1014000020636F7272656374696F6E3A2000A10A7F
:101410005F0A320BE40AC80B7F0B47323820573083
:10142000003A2000530C180C54656D70657261749D
:101430007572652063616C6962726174696F6E2098
:10144000646F6E652E20436F6E74696E75652077CC
:10145000697468207072657373696E67207468655B
:10146000206B6E6F622E0000205A207368696674CC
:1014700020286D6D293A0050494E44412074656D15
:1014800070657261747572653A2000002F360053E2
:101490007465703A200000205A20736869667420D1
:1014A000286D6D293A0050494E44412074656D7095
:1014B000657261747572653A20002F362028736B4F
:1014C00069707065642900537465703A2000005A91
:1014D00045524F3A20000073746172742074656D38
:1014E00070657261747572653A200050494E4441CE
:1014F0002070726F62652063616C696272617469E9
:101500006F6E20737461727400B40C8B0CDC0C472A
:101510003238205730000A00205A3A200020593A29
:10152000200020583A2000230D5641524F56414E7C
:10153000493A204E657A6E616D612C206E65706F40
:1015400064706F726F76616E61207665727A652065
:101550006669726D776172652E20506F757A697455
:1015600069206E6120766C6173746E69206E6562AD
:10157000657A7065636921005741524E494E473A7A
:10158000205468697320697320616E20756E6F66E0
:1015900066696369616C2C20756E737570706F720B
:1015A000746564206275696C642E205573652061D2
:1015B0007420796F7572206F776E207269736B215A
:1015C000005072757361206933204D4B33206F6B6F
:1015D000005072757361206933204D4B3320726562
:1015E0006164792E00446574656B6F76616E207658
:1015F00079706164656B2070726F7564752E4F62CF
:101600006E6F766974207469736B3F00426C61631E
:101610006B6F7574206F636375727265642E2052F0
:1016200065636F766572207072696E743F005072E8
:101630006F206B616C69627261636920707265739F
:101640006E65686F207265686F6D6F76616E692078
:1016500062756465206E796E692073707573746548
:101660006E2073656C66746573742E0053656C66CA
:10167000746573742077696C6C2062652072756E76
:1016800020746F2063616C696272617465206163AC
:101690006375726174652073656E736F726C6573C8
:1016A00073207265686F6D696E672E004E656E6996
:1016B000207A6B616C6962726F76616E6120767AF6
:1016C00064616C656E6F737420747279736B7920CA
:1016D0006F64207469736B6F766520706F646C6FD4
:1016E0007A6B792E20506F73747570756A746520EB
:1016F00070726F73696D20706F646C65206D616EC0
:1017000075616C752C206B617069746F6C61205A07
:101710006163696E616D652C206F647374617665B9
:1017200063204E6173746176656E69207072766EA7
:1017300069207672737476792E0044697374616ED1
:101740006365206265747765656E20746970206FCB
:101750006620746865206E6F7A7A6C6520616E64AD
:1017600020746865206265642073757266616365C4
:1017700020686173206E6F74206265656E207365EA
:1017800074207965742E20506C6561736520666FD6
:101790006C6C6F7720746865206D616E75616C2C60
:1017A0002063686170746572204669727374207377
:1017B000746570732C2073656374696F6E2046695D
:1017C000727374206C617965722063616C696272F6
:1017D0006174696F6E2E005469736B61726E612063
:1017E0006E6562796C61206A65737465207A6B61DD
:1017F0006C6962726F76616E612E20506F737475C2
:1018000070756A74652070726F73696D20706F6493
:101810006C65206D616E75616C752C206B617069F3
:10182000746F6C61205A6163696E616D652C206F05
:101830006473746176656320506F73747570206B88
:10184000616C6962726163652E005072696E7465C5
:101850007220686173206E6F74206265656E20630C
:10186000616C69627261746564207965742E2050C0
:101870006C6561736520666F6C6C6F77207468654A
:10188000206D616E75616C2C206368617074657287
:101890002046697273742073746570732C207365AD
:1018A0006374696F6E2043616C6962726174696F01
:1018B0006E20666C6F772E004E65706C61746E657D
:1018C00020686F646E6F7479206E617374617665E1
:1018D0006E692E204275646520706F757A69746F29
:1018E00020767963686F7A69205049442C204573CB
:1018F00074657073206174642E004F6C642073658E
:101900007474696E677320666F756E642E2044650B
:101910006661756C74205049442C20457374657061
:1019200073206574632E2077696C6C206265207368
:1019300065742E002020506C616E6E657242756673
:1019400066657242797465733A2000204672656557
:10195000204D656D6F72793A2000207C20417574AE
:10196000686F723A2000204C617374205570646176
:101970007465643A200020536F6674776172652045
:10198000526573657400205761746368646F6720E3
:101990005265736574002042726F776E206F7574A4
:1019A000205265736574002045787465726E616CB1
:1019B00020526573657400506F77657255700065CD
:1019C00072726F722077726974696E6720746F200B
:1019D00066696C6500656E6473746F707320686906
:1019E000743A2000446F6E6520736176696E6720DB
:1019F00066696C652E006F6B00202D20496E766144
:101A00006C6964206578747275646572206E756D9A
:101A10006265722021001B5B324A1B5B313B3148FF
:101A20004F726967696E616C2050727573612069CD
:101A3000331B5B323B3348507275736120526573C0
:101A4000656172636800466163746F727920524504
:101A50005345540078152915D115C1150C16E515F7
:101A60006C162E163A17AC164A18D717FA18B8186B
:101A700034194B194D617220203920323031380031
:101A8000436F6D70696C65643A2000286E6F6E65F7
:101A90002C2064656661756C7420636F6E6669677F
:101AA00029005A194D6172202039203230313820F6
:101AB00032313A32383A343100661976198619963D
:101AC00019A719B71920332E312E332D3234350A88
:101AD000007374617274002055706C6F61642069CA
:101AE0006E2070726F677265737300BF195A0020A1
:101AF0005A3A00590020593A00580020583A00D567
:101B0000194D3630300047312045332046323030D1
:101B100000473120452D33204632303000435241BA
:101B200053485F4445544543544544585900435233
:101B30004153485F4445544543544544590043523A
:101B40004153485F44455445435445445800E419C3
:101B5000F6194D323900656E717565696E67202220
:101B600000446F6E65207072696E74696E672066DE
:101B7000696C650053544F505045442E20005072FC
:101B8000696E7465722073746F707065642064751B
:101B90006520746F206572726F72732E20466978AB
:101BA00020746865206572726F7220616E642075A2
:101BB0007365204D39393920746F207265737461F3
:101BC00072742E202854656D70657261747572652B
:101BD0002069732072657365742E205365742069C3
:101BE00074206166746572207265737461727469C1
:101BF0006E6729004E6F204C696E65204E756D62D0
:101C00006572207769746820636865636B73756DAE
:101C10002C204C617374204C696E653A20004E6F25
:101C200020436865636B73756D2077697468206CF9
:101C3000696E65206E756D6265722C204C617374DF
:101C4000204C696E653A2000636865636B73756D3F
:101C5000206D69736D617463682C204C617374200E
:101C60004C696E653A20004C696E65204E756D6258
:101C70006572206973206E6F74204C617374204C00
:101C8000696E65204E756D6265722B312C204C613A
:101C90007374204C696E653A20007C3C3E5E2B3D9F
:101CA0003F2F5B5D3B2C2A225C0022206661696C21
:101CB00065643A204275666665722066756C6C21B3
:101CC000002200561B256920686F757273202569F4
:101CD000206D696E7574657300611B54494D454FE5
:101CE00055543A00741B7E1BF41B1E1C481C671CB9
:101CF0004D3131300046756C6C205258204275666B
:101D0000666572004572723A205052494E54204620
:101D1000414E204552524F52005072696E742066F7
:101D2000616E207370656564206973206C6F7765E0
:101D300072207468656E20657870656374656400F0
:101D40004572723A20455854522E2046414E204545
:101D500052524F5200457874727564657220666104
:101D60006E207370656564206973206C6F7765728F
:101D7000207468656E206578706563746564002FF3
:101D80002F20616374696F6E3A70617573650070BE
:101D9000012C0190012701B0012201C0011D01F0B9
:101DA0000118011002130130020E016002090190B6
:101DB000020401C002FF000003FA004003F50080A6
:101DC00003F000D003EB002004E6007004E100E023
:101DD00004DC004005D700C005D2004006CD00D08D
:101DE00006C8008007C3003008BE00F008B900C074
:101DF00009B400B00AAF00B00BAA00D00CA50000D7
:101E00000EA000500F9B00C01096005012910000D1
:101E1000148C00C0158700B0178200B0197D00D067
:101E20001B7800001E730040206E0090226900F0B5
:101E300024640040275F0090295A00E02B550010D1
:101E40002E500020304B0010324600E0334100900D
:101E5000353C001037370070383200A0392D00B003
:101E60003A2800A03B2300603C1E00103D19009062
:101E70003D1400103E0F00703E0A00C03E050000F9
:101E80003F000090137D00B0157800F017730060DC
:101E90001A6E00F01C6900A01F640050225F002031
:101EA000255A00E0275500902A5000202D4B00A015
:101EB0002F4600F031410010343C00F0353700A0CF
:101EC00037320020392D00603A2800703B23006033
:101ED0003C1E00203D1900C03D1400403E0F00A0F4
:101EE0003E0A00F03E0500403F0000703FFBFF90BF
:101EF0003FF6FFB03FF1FFC03FECFFD03FE7FFE010
:101F00003FE2FFF03FDDFFF03FD8FF20484F544550
:101F10004E4420544845524D414C2052554E415755
:101F200041590020484541544245442054484552B7
:101F30004D414C2052554E4157415900544845524D
:101F40004D414C2052554E41574159004245442085
:101F5000544845524D414C2052554E41574159002D
:101F600020544845524D414C2052554E41574159FD
:101F70002028205052454845415420484F54454E52
:101F800044290020544845524D414C2052554E4161
:101F90005741592028205052454845415420484532
:101FA000415442454429005052454845415420453A
:101FB00052524F52004245442050524548454154E8
:101FC000204552524F52004572723A204D415854AA
:101FD000454D50003A2045787472756465722073DF
:101FE00077697463686564206F66662E204D41587A
:101FF00054454D502074726967676572656420218D
:10200000004572723A204D415854454D502042458A
:10201000440054656D706572617475726520686501
:1020200061746564206265642073776974636865B0
:1020300064206F66662E204D415854454D502074E3
:1020400072696767657265642021004572723A2083
:102050004D494E54454D50204245440054656D70E5
:10206000657261747572652068656174656420626B
:102070006564207377697463686564206F66662E93
:10208000204D494E54454D50207472696767657202
:1020900065642021004572723A204D494E54454DE9
:1020A00050003A20457874727564657220737769C0
:1020B0007463686564206F66662E204D494E5445F2
:1020C0004D50207472696767657265642021004312
:1020D000656B616E69206E61207A63686C61646E05
:1020E00075746920747279736B79206120706F64E4
:1020F0006C6F7A6B792E0057616974696E67206620
:102100006F72206E6F7A7A6C6520616E64206265F2
:102110006420636F6F6C696E670053656C66207432
:10212000657374204F4B0053656C6620746573743F
:1021300020737461727420200053656E7A6F722070
:1021400066696C616D656E74750046696C616D657C
:102150006E742073656E736F720050726F686F7A61
:10216000656E6500537761707065640050726564D8
:102170006E692F6C6576792076656E742E004672D6
:102180006F6E742F6C6566742066616E73004F739A
:102190006100417869730044656C6B61206F7379ED
:1021A0000041786973206C656E6774680055766FBE
:1021B0006C6E656E612072656D656E69636B610042
:1021C0004C6F6F73652070756C6C657900456E643B
:1021D00073746F70206E6F742068697400456E644C
:1021E00073746F70004D6F746F7200456E6473741A
:1021F0006F7073004368796261207A61706F6A65FD
:102200006E6900576972696E67206572726F72003D
:10221000426564202F20486561746572004E657ABE
:1022200061706F6A656E6F20202020004E6F7420F1
:10223000636F6E6E65637465640048656174657292
:102240002F546865726D6973746F72005A6B6F6E8C
:1022500074726F6C756A7465203A00506C656173B6
:102260006520636865636B203A0053656C6674652E
:102270007374206572726F7220210053656E7A6FDD
:10228000722066696C616D656E74753A0046696CA2
:10229000616D656E742073656E736F723A00546978
:1022A000736B6F76792076656E742E3A0050726982
:1022B0006E742066616E3A004C6576792076656EA4
:1022C000742E3A0045787472756465722066616E8A
:1022D0003A0053656C66746573742073656C68614D
:1022E0006C20200053656C667465737420666169A8
:1022F0006C6564202000567365204F4B2020202001
:102300002020202020202000416C6C20636F7272FE
:10231000656374202020202020004B6F6E74726F44
:102320006C612073656E7A6F727500436865636BCC
:10233000696E672073656E736F727320004B6F6EEA
:1023400074726F6C6120626564202020202000433D
:102350006865636B696E67206265642020202020B9
:10236000004B6F6E74726F6C61205A2061786973D4
:10237000202000436865636B696E67205A2061788E
:1023800069732020004B6F6E74726F6C612059204E
:1023900061786973202000436865636B696E67200C
:1023A0005920617869732020004B6F6E74726F6CD6
:1023B0006120582061786973202000436865636B51
:1023C000696E67205820617869732020004B6F6E1A
:1023D00074726F6C6120686F74656E6420200043B6
:1023E0006865636B696E6720686F74656E64202032
:1023F000004B6F6E74726F6C6120656E6473746FE6
:10240000707300436865636B696E6720656E647303
:10241000746F707300F720CF201A214D38340047B5
:1024200031205A31352046313030300047323820A3
:102430005700272141786973206C656E67746820A6
:10244000646966666572656E63653A004D656173C1
:10245000757265642061786973206C656E67746855
:102460003A0025632041584953205347313D2564A4
:102470000A004A21392164215A217E216C219221AE
:102480008E21A1219721C021AD21CD21DD21E52182
:10249000EB210322F42110222C221D223A225B225E
:1024A0004C226A228D227B22AD229E22C422B82297
:1024B00043616C6962726174696E6720686F6D65F3
:1024C00000E422D2220823F6222B231A234F233D95
:1024D000237323612397238523BB23A923DF23CDE4
:1024E000230324F123506F757A6520616B74756145
:1024F0006C6E690043757272656E7400506F757A08
:1025000069746520626568656D207469736B750018
:102510005573656420647572696E67207072696EA8
:10252000740056736500416C6C00504944206B6127
:102530006C2E20756B6F6E63656E61005049442090
:1025400063616C2E2066696E69736865640050492A
:1025500044206B616C2E2020202020202020202071
:1025600020005049442063616C2E20202020202030
:102570002020202020004D313137204B616C2E204F
:102580007072766E6920767273747679004D31318F
:1025900037204669727374206C61796572206361BB
:1025A0006C2E004F626E6F766F76616E6920746973
:1025B000736B7500526573756D696E672070726913
:1025C0006E74005469736B20706F7A6173746176F6
:1025D000656E005072696E74207061757365640079
:1025E000F424E5241025FC2426252225496E766155
:1025F0006C6964205049442063616C2E20726573BD
:10260000756C74732E204E6F742073746F726564D2
:1026100020746F20454550524F4D2E004D353030BF
:10262000003C252A2562254E254731205A31352088
:102630004631353030004739310047312058353088
:10264000205931393020453020463730303000476E
:102650003930004D373032004D3730322043004D95
:102660003730322055004D373032004731205A3153
:102670003520463135303000473931004731205858
:102680003530205931393020453020463730303010
:10269000004D383300473930004D3834004D31306B
:1026A00034205330004D3834004731205831302029
:1026B00059313830204634303030004731205A31DB
:1026C000302046313330302E303030004D31343010
:1026D000205330004D313034205330004D313037ED
:1026E00000473120452D302E3037353030204632EE
:1026F0003130302E303030303000473120583530D6
:10270000205935352045332E36323737330047319F
:102710002058323030205935352045302E34393369
:10272000383600473120583230302059373520456F
:10273000332E363237373300473120583530205961
:1027400037352045302E343933383600473120585C
:102750003530205939352045332E3632373733005E
:1027600047312058323030205939352045302E3409
:102770003933383600473120583230302059313122
:10278000352045332E363237373300473120583520
:102790003020593131352045302E34393338360028
:1027A00047312058353020593133352045332E36C6
:1027B00032373733004731205832303020593133E7
:1027C000352045302E3636313734004731205832E7
:1027D000303020593135352045322E3632373733B7
:1027E00000473120583130302059313535204532BD
:1027F0000047312058373520593135352045322EA4
:1028000035004731204631303830004731205835C7
:1028100030205931353500473120463430303000D2
:102820004D323034205331303030004731205A306F
:102830002E3135302046373230302E3030300047A0
:102840003120452D312E3530303030204632313078
:10285000302E3030303030004D38330047393000C2
:10286000473231004739322045302E300047312081
:10287000583130302E30204531322E35204631301F
:1028800030302E30004731205836302E3020453938
:102890002E302046313030302E300047393220453E
:1028A000302E300047323800473837008D257625E6
:1028B0004D3130392053323135004D3139302053CC
:1028C0003630004D31343020533630004D31303405
:1028D0002053323135004D31303700B425A3254720
:1028E0003930004731204531004D38320047312022
:1028F0004531004D3833004D3130362053256400CA
:102900004D3232302053256400D325C3254B616CF2
:10291000696272756A69205A0043616C696272610A
:1029200074696E67205A004974657261636520009E
:10293000497465726174696F6E2000207A203400DA
:10294000206F662034005A6C657073756A69207058
:102950007265736E6F7374206B616C696272616310
:102960006E69686F20626F647500496D70726F7672
:10297000696E67206265642063616C69627261746C
:10298000696F6E20706F696E74004B616C69627262
:102990006163652058595A207620706F7261646BAC
:1029A000752E205A6B6F73656E69206275646520A1
:1029B0006175746F6D617469636B79207679726F7C
:1029C000766E616E6F20707269207469736B752EFC
:1029D0000058595A2063616C6962726174696F6E44
:1029E00020616C6C2072696768742E20536B657768
:1029F0002077696C6C20626520636F727265637406
:102A00006564206175746F6D61746963616C6C7964
:102A10002E004B616C6962726163652058595A20BF
:102A20007620706F7261646B752E20582F59206F5D
:102A30007379206D69726E65207A6B6F73656E6550
:102A40002E20446F627261207072616365210058AC
:102A5000595A2063616C6962726174696F6E20619A
:102A60006C6C2072696768742E20582F5920617829
:102A700065732061726520736C696768746C792076
:102A8000736B657765642E20476F6F64206A6F6291
:102A900021004B616C6962726163652058595A204C
:102AA0007620706F7261646B752E20582F59206FDD
:102AB0007379206A736F75206B6F6C6D652E20477C
:102AC000726174756C756A69210058595A20636186
:102AD0006C6962726174696F6E206F6B2E20582F63
:102AE0005920617865732061726520706572706528
:102AF0006E646963756C61722E20436F6E677261DC
:102B000074756C6174696F6E7321004B616C6962DE
:102B1000726163652058595A206E65707265736ED4
:102B2000612E204C65767920707265646E69206232
:102B30006F64206D6F63207670726564752E005827
:102B4000595A2063616C6962726174696F6E2063A7
:102B50006F6D70726F6D697365642E204C6566745D
:102B60002066726F6E742063616C69627261746951
:102B70006F6E20706F696E74206E6F742072656165
:102B8000636861626C652E004B616C69627261639F
:102B9000652058595A206E65707265736E612E20DB
:102BA000507265646E69206B616C69627261636EFC
:102BB0006920626F6479206D6F632076707265643E
:102BC000752E0058595A2063616C6962726174698C
:102BD0006F6E20636F6D70726F6D697365642E2008
:102BE00046726F6E742063616C6962726174696FA2
:102BF0006E20706F696E7473206E6F7420726561E1
:102C0000636861626C652E004B616C69627261631E
:102C1000652058595A2073656C68616C612E204C90
:102C200065767920707265646E6920626F64206DCC
:102C30006F63207670726564752E2053726F766EA6
:102C4000656A7465207469736B61726E752E0058C5
:102C5000595A2063616C6962726174696F6E206693
:102C600061696C65642E204C6566742066726F6EB7
:102C7000742063616C6962726174696F6E20706F39
:102C8000696E74206E6F7420726561636861626C36
:102C9000652E004B616C6962726163652058595AF8
:102CA0002073656C68616C612E20507265646E697A
:102CB000206B616C69627261636E6920626F647916
:102CC000206D6F63207670726564752E2053726F6D
:102CD000766E656A7465207469736B61726E752EA9
:102CE0000058595A2063616C6962726174696F6E31
:102CF000206661696C65642E2046726F6E74206375
:102D0000616C6962726174696F6E20706F696E7454
:102D100073206E6F7420726561636861626C652EEA
:102D2000004B616C6962726163652058595A207367
:102D3000656C68616C612E204E61686C65646E65BF
:102D4000746520646F206D616E75616C752E00581E
:102D5000595A2063616C6962726174696F6E206692
:102D600061696C65642E20506C6561736520636FCA
:102D70006E73756C7420746865206D616E75616C1E
:102D80002E004B616C6962726163652058595A204C
:102D900073656C68616C612E204B616C6962726155
:102DA000636E6920626F6420706F646C6F7A6B79F8
:102DB000206E656E616C657A656E2E0058595A20DA
:102DC00063616C6962726174696F6E206661696CBF
:102DD00065642E204265642063616C69627261746F
:102DE000696F6E20706F696E7420776173206E6FEB
:102DF0007420666F756E642E00207A203400206F78
:102E000066203400486C6564616D206B616C69629A
:102E10007261636E6920626F6420706F646C6F7A98
:102E20006B7900536561726368696E6720626564DF
:102E30002063616C6962726174696F6E20706F6982
:102E40006E7400556D697374657465206C69737474
:102E500020706170697275206E6120706F646C6F94
:102E60007A6B752061207564727A756A7465206A60
:102E7000656A20706F6420747279736B6F7520625D
:102E80006568656D206D6572656E69207072766E1D
:102E9000696368203420626F64752E20506F6B75F3
:102EA0006420747279736B61207A616368797469E4
:102EB0002070617069722C207679706E657465205F
:102EC0007469736B61726E752E00506C616365205E
:102ED00061207368656574206F662070617065722B
:102EE00020756E64657220746865206E6F7A7A6CE6
:102EF0006520647572696E67207468652063616C13
:102F00006962726174696F6E206F662066697273A0
:102F100074203420706F696E74732E20496620749B
:102F20006865206E6F7A7A6C65206361746368658A
:102F300073207468652070617065722C20706F77E3
:102F40006572206F666620746865207072696E74A1
:102F5000657220696D6D6564696174656C792E00B8
:102F600050726F2075737065736E6F75206B616C36
:102F7000696272616369206F636973746574652047
:102F800070726F73696D207469736B6F766F7520E3
:102F9000747279736B752E20506F747672647465D9
:102FA00020746C616369746B656D2E00506C656193
:102FB000736520636C65616E20746865206E6F7A3E
:102FC0007A6C6520666F722063616C6962726174ED
:102FD000696F6E2E20436C69636B207768656E2085
:102FE000646F6E652E0000007F43000056439AD93F
:102FF0005143FFFFFF19290D29203C200057415262
:103000004E494E473A2046726F6E7420706F696E5B
:1030100074206E6F7420726561636861626C652EE6
:10302000205920636F6F7264696E6174653A0000A5
:1030300030292729497465726174696F6E3A2000DE
:1030400043616C63756C6174696F6E206F66207488
:103050006865206D616368696E6520736B657720B4
:10306000616E64206F6666736574206661696C6565
:10307000642E0040293B296A294629D1298A294FF3
:103080002A122ACA2A922A3F2B0B2BC32B882B4F9A
:103090002C082CE12C932C4F2D212DBC2D822D435F
:1030A000616C6962726174696F6E206661696C65DA
:1030B000642120436865636B2074686520617865CE
:1030C0007320616E642072756E20616761696E2E77
:1030D00000FE2DF92D232E042ECA2E432EAC2F6078
:1030E0002F54657A6B65207A6B6F73656E693A0051
:1030F00053657665726520736B65773A004C656839
:103100006B65207A6B6F73656E693A00536C696703
:10311000687420736B65773A004D6572656E652043
:103120007A6B6F73656E693A004D65617375726590
:103130006420736B65773A0050726176793A005279
:10314000696768743A004C6576793A004C65667434
:103150003A005920767A64616C656E6F7374206FE3
:1031600064206D696E3A00592064697374616E63FE
:10317000652066726F6D206D696E3A004E617065F4
:10318000746900566F6C7461676573005465706C88
:103190006F74790054656D706572617475726573D2
:1031A00000537461762072656D656E750042656CC2
:1031B00074207374617475730045787472756465F6
:1031C0007220696E666F0044657461696C7920587D
:1031D000595A206B616C2E0058595A2063616C2E2D
:1031E0002064657461696C7300446174756D3A00A4
:1031F000446174653A00686F77746F2E70727573EE
:103200006133642E637A00686F77746F2E70727505
:10321000736133642E636F6D00666F72756D2E700F
:103220007275736133642E637A00666F72756D2EEA
:10323000707275736133642E636F6D007072757395
:103240006133642E637A00707275736133642E6328
:103250006F6D0050726F73696D2063656B656A7482
:103260006500506C65617365207761697400417514
:10327000746F6D617469636B65207A6176616465F2
:103280006E692066696C616D656E747520616B7422
:1032900069766E692C20737469736B6E6574652032
:1032A000746C616369746B6F206120766C6F7A74E3
:1032B000652066696C616D656E742E2E2E004175F9
:1032C000746F6C6F6164696E672066696C616D65AF
:1032D0006E74206973206163746976652C206A7549
:1032E000737420707265737320746865206B6E6FE1
:1032F0006220616E6420696E736572742066696C09
:10330000616D656E742E2E2E0043656C6B6F767941
:1033100020636173203A00546F74616C207072698D
:103320006E742074696D65203A0046696C616D6544
:103330006E742063656C6B656D203A00546F746128
:103340006C2066696C616D656E74203A0043617330
:10335000207469736B75203A2020005072696E7476
:103360002074696D653A20200046696C616D656E58
:1033700074203A20200046696C616D656E7420757A
:103380007365643A20200000F030E130000C31FD1C
:10339000302D2D2D2D2D2D2D2D2D2D2D2D2D2D2D5A
:1033A0002D2D2D2D2D004E2F4100293119314E2F5D
:1033B00041006D6D00003F3138314C31463167318D
:1033C000523183317C3194318C31AD31A131B931FD
:1033D000D831C7312D2D2D2D2D2D2D2D2D2D2D2DD0
:1033E00000466C61736841697220495020416464F1
:1033F000723A002D2D2D2D2D2D2D2D2D2D2D2D0005
:103400004D6172202039203230313800F031E931FD
:103410002D2D2D2D2D2D2D2D2D2D2D2D00453344D4
:10342000763666756C6C0045494E595F30346100E4
:10343000315F37356D6D5F4D4B33002D2D2D2D2DAB
:103440002D2D2D2D2D2D2D000732F6312A3219323A
:1034500047323C32207265706F2050727573613351
:10346000442F4D4B330020332E312E332D32343543
:10347000004669726D776172653A0025642E256495
:103480002E25642E256400623253324D37303100D0
:10349000BE326E32173309333C332A335B334D333C
:1034A000763369334578747275646572004F626E65
:1034B0006F766F76616E69207469736B752020205A
:1034C00020005265636F766572696E67207072695D
:1034D0006E74202020200020423A0020453A0054FB
:1034E0003A0055564C4F202D20656E640073747061
:1034F0007300494E54340029002C20002C20007702
:103500006F726C6420636F6F7264696E617465734F
:103510003A20280029002C20002C200070687973A4
:103520006963616C20636F6F7264696E6174657347
:103530003A2028007265636F7665725F6D6163681B
:10354000696E655F73746174655F61667465725FEF
:10355000706F7765725F70616E69632C20696E6948
:103560007469616C20007265636F7665725F6D616E
:103570006368696E655F73746174655F61667465C5
:10358000725F706F7765725F70616E69632C20691E
:103590006E697469616C20004739322045004D32F4
:1035A00034004D32362053256C75004D31303620B5
:1035B00053004D3832004731204625640047312002
:1035C00045322A312046343830004731205A002015
:1035D00046323030300020590047312058004D38F5
:1035E0003300506F736974696F6E20726561642077
:1035F00066726F6D20656570726F6D3A004D323383
:10360000202573002E67636F0046656564726174E0
:10361000653A0063757272656E745F706F7369747A
:10362000696F6E5B455F415849535D3A006375723F
:1036300072656E745F706F736974696F6E5B5A5FE9
:10364000415849535D3A0043757272656E7420703B
:103650006F736974696F6E20595F415849533A001E
:1036600043757272656E7420706F736974696F6EE2
:1036700020585F415849533A00416674657220777B
:10368000616974696E6720666F722074656D703A47
:1036900000473120452D3120463438300047312055
:1036A00045352046313230004D3833004D31393008
:1036B00020532564004D31303920532564004732B2
:1036C0003820582059004731205A323520463830AA
:1036D00030004D31343020532564004D31303420DA
:1036E00053256400C234AD34627573793A20706139
:1036F0007573656420666F7220696E707574006200
:103700007573793A2070617573656420666F7220F5
:103710007573657200627573793A2070726F6365B4
:103720007373696E6700000021104220633084408B
:10373000A550C660E770088129914AA16BB18CC180
:10374000ADD1CEE1EFF13112100273325222B552F7
:103750009442F772D662399318837BB35AA3BDD3D0
:103760009CC3FFF3DEE36224433420040114E664C7
:10377000C774A44485546AA54BB528850995EEE520
:10378000CFF5ACC58DD55336722611163006D776D7
:10379000F6669556B4465BB77AA719973887DFF770
:1037A000FEE79DD7BCC7C448E5588668A77840089F
:1037B000611802282338CCC9EDD98EE9AFF94889C0
:1037C00069990AA92BB9F55AD44AB77A966A711A37
:1037D000500A333A122AFDDBDCCBBFFB9EEB799B10
:1037E000588B3BBB1AABA66C877CE44CC55C222C87
:1037F000033C600C411CAEED8FFDECCDCDDD2AAD60
:103800000BBD688D499D977EB66ED55EF44E133E16
:10381000322E511E700E9FFFBEEFDDDFFCCF1BBFAF
:103820003AAF599F788F8891A981CAB1EBA10CD189
:103830002DC14EF16FE18010A100C230E320045091
:10384000254046706760B9839893FBA3DAB33DC304
:103850001CD37FE35EF3B1029012F322D2323542E1
:10386000145277625672EAB5CBA5A89589856EF594
:103870004FE52CD50DC5E234C324A0148104667431
:10388000476424540544DBA7FAB79987B8975FE7E4
:103890007EF71DC73CD7D326F2369106B016576681
:1038A0007676154634564CD96DC90EF92FE9C8996C
:1038B000E9898AB9ABA94458654806782768C018D1
:1038C000E1088238A3287DCB5CDB3FEB1EFBF98B44
:1038D000D89BBBAB9ABB754A545A376A167AF10A21
:1038E000D01AB32A923A2EFD0FED6CDD4DCDAABD54
:1038F0008BADE89DC98D267C076C645C454CA23C71
:10390000832CE01CC10C1FEF3EFF5DCF7CDF9BAF23
:10391000BABFD98FF89F176E367E554E745E932EC0
:10392000B23ED10EF01E41646A757374696E6720F1
:103930005A00526573657400567A61647520205B85
:10394000756D5D00526561722073696465205B75F9
:103950006D5D00567072656475205B756D5D004627
:10396000726F6E7420736964655B756D5D0056706F
:103970007261766F205B756D5D00526967687420B7
:10398000736964655B756D5D00566C65766F2020AC
:103990005B756D5D004C6566742073696465205BC2
:1039A000756D5D004E617374617674652074657029
:1039B0006C6F74753A005365742074656D70657230
:1039C00061747572653A00580059005A0026393200
:1039D00039443938395F3953397A396E39953989EB
:1039E00039B639A43920003E003E0020003E003E9A
:1039F000005A30005A310059300059310058300017
:103A0000583100456E642073746F7073206469616F
:103A100067004E65746F6369207365004E6F742094
:103A20007370696E6E696E6700546F6369207365A9
:103A3000005370696E6E696E67004C65767920760A
:103A4000656E74206E61207472797363653F004CFB
:103A500065667420686F74656E642066616E3F00F1
:103A6000507265646E69207469736B6F7679207625
:103A7000656E743F0046726F6E74207072696E746A
:103A80002066616E3F00546573742076656E7469BC
:103A90006C61746F72750046616E2074657374009A
:103AA0001C3A123A313A293A4F3A3A3A753A603A60
:103AB000973A863A01021020200808102040102072
:103AC00040800201020108040201010204081020E2
:103AD00040808040201008040201800402018040E0
:103AE0002010080402010804020101020408102049
:103AF0004080010204081020408010080408801053
:103B00002040044080102040048000002200250056
:103B100028002B002E0031003400020100000501B6
:103B200008010B010505050507050808080802023C
:103B300002020A0A08080404040401010101010147
:103B400001010303030303030303040707070C0C2A
:103B50000C0C0C0C0C0C02020202060606060606F1
:103B600006060B0B0B0B0B0B0B0B07070A0A0A0ABB
:103B70000A0A050505040404080802222066616992
:103B80006C65643A204275666665722066756C6C79
:103B90002100456E717565696E6720746F207468C9
:103BA000652066726F6E743A2022004572726F72E1
:103BB0003A002200456E717565696E6720746F204A
:103BC0007468652066726F6E743A2022004D32343C
:103BD000004D3233202573006175746F25692E679F
:103BE000001000C90210012C0140012201700118CF
:103BF00001B0010E01F00104015002FA00B002F020
:103C0000003003E600D003DC009004D2007005C849
:103C100000A006BE000008B400B009AA00D00BA0A6
:103C200000600E960060118C00001582002019784B
:103C300000C01D6E00A0226400B0275A00902C50D6
:103C40000000314600E0343C0010383200903A2841
:103C500000603C1E00A03D1400803E0A00203F0092
:103C6000004E4F524D414C00535445414C54480076
:103C7000746D63323133305F696E697428292C208A
:103C80006D6F64653D25530A00544D4320445249ED
:103C9000564552204F56455254454D502000746DA4
:103CA00063323133305F7365745F63757272656E52
:103CB000745F6828617869733D25642C2063757290
:103CC00072656E743D25640A00746D633231333061
:103CD0005F7365745F63757272656E745F7228617D
:103CE0007869733D25642C2063757272656E743D2E
:103CF00025640A00726573756C742076616C756555
:103D00003A2025640A0020693D25326420636E74E0
:103D10003D2532642076616C3D2532640A00636C77
:103D20007573746572733A0A0020693D2532642008
:103D3000737465703D2532640A00736F7274656434
:103D40002073616D706C65733A0A00457874727502
:103D500064657200506F73756E6F7574205A004DF4
:103D60006F7665205A00506F73756E6F75742059A9
:103D7000004D6F7665205900506F73756E6F7574C6
:103D80002058004D6F76652058001B5B324A437205
:103D900061736820646574656B6365206D757A6511
:103DA0001B5B313B3048627974207A61706E7574A8
:103DB0006120706F757A6520761B5B323B30484E10
:103DC0006F726D616C206D6F6475001B5B324A43CE
:103DD0007261736820646574656374696F6E2063D3
:103DE000616E1B5B313B30486265207475726E6595
:103DF00064206F6E206F6E6C7920696E1B5B323BA6
:103E000030484E6F726D616C206D6F6465001B5B96
:103E1000324A504F5A4F523A1B5B313B3048437243
:103E200061736820646574656B63651B5B323B304E
:103E3000486465616B7469766F76616E6120766542
:103E40001B5B333B3048537465616C7468206D6F45
:103E50006475001B5B324A5741524E494E473A1B2C
:103E60005B313B30484372617368206465746563FD
:103E700074696F6E1B5B323B304864697361626CBE
:103E8000656420696E1B5B333B3048537465616C1D
:103E90007468206D6F6465004175746F6D6174693D
:103EA000636B65207A61766164656E692066696C12
:103EB000616D656E747520646F737475706E6520C6
:103EC000706F757A6520707269207A61706E757492
:103ED000656D2066696C616D656E742073656E7AC0
:103EE0006F72752E2E2E004175746F6C6F61646950
:103EF0006E672066696C616D656E742061766169BC
:103F00006C61626C65206F6E6C79207768656E20DD
:103F100066696C616D656E742073656E736F722077
:103F20006973207475726E6564206F6E2E2E2E007C
:103F300043485942413A2046696C616D656E742070
:103F400073656E7A6F72206E6572656167756A65FA
:103F50002C207A6B6F6E74726F6C756A7465207A40
:103F600061706F6A656E692E004552524F523A2059
:103F700046696C616D656E742073656E736F722037
:103F80006973206E6F7420726573706F6E64696EF2
:103F9000672C20706C6561736520636865636B20B6
:103FA000636F6E6E656374696F6E2E005A6B616C21
:103FB0006962726F7661740043616C6962726174E8
:103FC00065004E656A6472697665207A617665641B
:103FD000746520504C412066696C616D656E74207B
:103FE00070726F73696D2E00506C65617365206C23
:103FF0006F616420504C412066696C616D656E7420
:104000002066697273742E004A6520504C41206608
:10401000696C616D656E74207A61766564656E3F6A
:1040200000497320504C412066696C616D656E7467
:10403000206C6F616465643F0050726F73696D201E
:104040007A61766564746520504C412066696C61C4
:104050006D656E74206120706F207465206F626ED4
:104060006F7674652057697A617264612073746930
:10407000736B6E7574696D20726573657420746CF2
:10408000616369746B612E00506C65617365206CAF
:104090006F616420504C412066696C616D656E747F
:1040A00020616E64207468656E20726573756D653D
:1040B0002057697A617264206279207265626F6F3D
:1040C00074696E6720746865207072696E746572B9
:1040D0002E0050726F73696D206E61686C65646E3E
:1040E00065746520646F206D616E75616C7520610B
:1040F000206F7072617674652070726F626C656D8E
:104100002E20506F207465206F626E6F767465206C
:1041100057697A61726461207265626F6F746F763D
:10412000616E696D207469736B61726E792E0050D7
:104130006C6561736520636865636B206F757220C1
:1041400068616E64626F6F6B20616E64206669786F
:10415000207468652070726F626C656D2E205468E3
:10416000656E20726573756D65207468652057698A
:104170007A617264206279207265626F6F74696E11
:104180006720746865207072696E7465722E0056BF
:104190007365206A6520686F746F766F2E00416CBE
:1041A0006C20697320646F6E652E20486170707991
:1041B000207072696E74696E67210057697A617246
:1041C0006461206D757A657465206B64796B6F6CC2
:1041D0006976207A6E6F7675207370757374697462
:1041E000207A206D656E752043616C69627261741E
:1041F000696F6E202D3E2057697A61726400596F95
:10420000752063616E20616C7761797320726573CC
:10421000756D65207468652057697A6172642066DF
:10422000726F6D2043616C6962726174696F6E2098
:104230002D3E2057697A6172642E0050726F736947
:104240006D206F636973746574652068656174625D
:104250006564206120737469736B6E657465207486
:104260006C616369746B6F2E00506C6561736520BF
:10427000636C65616E206865617462656420616E5F
:1042800064207468656E207072657373207468654D
:10429000206B6E6F622E00436863657465206F70DB
:1042A000616B6F76617420706F736C65646E6920EA
:1042B0006B726F6B206120706F7A6D656E69742010
:1042C000767A64616C656E6F7374206D657A6920AF
:1042D000747279736B6F75206120686561746265B3
:1042E000643F00446F20796F752077616E7420748D
:1042F0006F20726570656174206C617374207374D3
:10430000657020746F20726561646A7573742064CF
:10431000697374616E6365206265747765656E208C
:104320006E6F7A7A6C6520616E6420686561746274
:1043300065643F005A61636E75207469736B6E6FBC
:104340007574206C696E6B752061205679206275DA
:104350006465746520706F737475706E6520736E1C
:10436000697A6F76617420747279736B75206F74DB
:104370006163656E696D20746C616369746B612043
:10438000646F6B7564206E65646F7361686E6574CD
:1043900065206F7074696D616C6E69207679736BDE
:1043A000792E2050726F686C65646E657465207339
:1043B00069206F6272617A6B792076206E61736911
:1043C0002070726972756363652076206B61706915
:1043D000746F6C65204B616C696272616365004942
:1043E0002077696C6C20737461727420746F207014
:1043F00072696E74206C696E6520616E6420796FDD
:10440000752077696C6C206772616475616C6C797A
:10441000206C6F77657220746865206E6F7A7A6C95
:104420006520627920726F746174696E67207468A8
:1044300065206B6E6F622C20756E74696C20796FCD
:1044400075207265616368206F7074696D616C209E
:104450006865696768742E20436865636B207468BB
:104460006520706963747572657320696E206F755D
:10447000722068616E64626F6F6B20696E20636882
:1044800061707465722043616C6962726174696FF6
:104490006E2E004E796E69207A6B616C696272755E
:1044A0006A6920767A64616C656E6F7374206D65DD
:1044B0007A69206B6F6E63656D20747279736B79A6
:1044C000206120706F76726368656D206865617425
:1044D000626564752E004E6F7720492077696C6C99
:1044E0002063616C696272617465206469737461D0
:1044F0006E6365206265747765656E2074697020EF
:104500006F6620746865206E6F7A7A6C6520616EC4
:1045100064206865617462656420737572666163A6
:10452000652E004A6520746F20504C412066696CEE
:10453000616D656E743F00497320697420504C4171
:104540002066696C616D656E743F005A61766164C6
:10455000656E692066696C616D656E7475004C6F7F
:104560006164696E672066696C616D656E74005088
:10457000726F73696D20766C6F7A746520504C4150
:104580002066696C616D656E7420646F2065787457
:104590007275646572752C20706F20746520737459
:1045A00069736B6E65746520746C616369746B6F9D
:1045B0002070726F207A61766564656E6920666925
:1045C0006C616D656E74752E00506C65617365204D
:1045D000696E7365727420504C412066696C616D20
:1045E000656E7420746F20746865206578747275C8
:1045F0006465722C207468656E2070726573732018
:104600006B6E6F6220746F206C6F61642069742E12
:1046100000507265646568726976616D20747279A4
:10462000736B752E2050726F73696D2063656B65B7
:104630006A74652E0050726568656174696E6720E2
:104640006E6F7A7A6C652E20506C65617365207789
:104650006169742E004E796E6920707265646568B8
:1046600072656A6920747279736B752070726F203D
:10467000504C412E004E6F7720492077696C6C209A
:1046800070726568656174206E6F7A7A6C652066F9
:104690006F7220504C412E004A652066696C616D36
:1046A000656E74207A61766564656E3F004973209B
:1046B00066696C616D656E74206C6F616465643FE2
:1046C00000556D6973746574652070726F73696DE0
:1046D000207469736B6F767920706C6174206E61E1
:1046E000206865617462656400506C656173652063
:1046F000706C61636520737465656C2073686565B3
:1047000074206F6E20686561746265642E004A656E
:10471000207469736B6F767920706C6174206E61A0
:1047200020686561746265643F0049732073746535
:10473000656C207368656574206F6E2068656174B0
:104740006265643F004E796E692070726F766564B1
:1047500075207A206B616C6962726163692E004911
:104760002077696C6C2072756E207A2063616C69A9
:1047700062726174696F6E206E6F772E004E796E73
:10478000692070726F766564752078797A206B6124
:104790006C6962726163692E205A6162657265207C
:1047A000746F20707269626C697A6E652031322094
:1047B0006D696E2E00492077696C6C2072756E20D1
:1047C00078797A2063616C6962726174696F6E20B6
:1047D0006E6F772E2049742077696C6C2074616B42
:1047E0006520617070726F782E203132206D696E95
:1047F000732E004E656A6472697620706F6D6F6308
:10480000692073656C667465737475207A6B6F6E5E
:10481000746F6C756A69206E656A63617374656A2A
:10482000736920636879627920767A6E696B616A50
:104830006963692070726920736573746176656E4F
:1048400069207469736B61726E792E0046697273A8
:10485000742C20492077696C6C2072756E20746806
:10486000652073656C667465737420746F2063686B
:1048700065636B206D6F737420636F6D6D6F6E2059
:10488000617373656D626C792070726F626C656DB7
:10489000732E00446F6272792064656E2C206A73F7
:1048A000656D2076617365207469736B61726E61EA
:1048B000204F726967696E616C2050727573612058
:1048C00069332E204368636574652061627963688B
:1048D000205661732070726F7665646C61206B6125
:1048E0006C69627261636E696D2070726F6365736B
:1048F000656D3F0048692C204920616D20796F75F6
:1049000072204F726967696E616C205072757361B5
:10491000206933207072696E7465722E20576F752E
:104920006C6420796F75206C696B65206D652074EF
:104930006F20677569646520796F75207468726F80
:10494000756768207468652073657475702070726F
:104950006F636573733F004B3D5F3D543D713D6632
:104960003D833D783DCB3D8A3D533E0E3EE73E982C
:104970003E693F303F473830004D3435205A00B84B
:104980003FAC3F47373600E83FC23F2140084088F0
:104990004039402F41D2409E418F41FE41BB41539F
:1049A000746174653A200069423B42E3429742DFFA
:1049B000433443D6449344374523455E454B45C96C
:1049C000456F453546114675465546AD469846E90C
:1049D00046C1462A470E475F474547B5477D474C86
:1049E00048F347F448934850726564656872656A95
:1049F000746520747279736B7521005072656865F7
:104A0000617420746865206E6F7A7A6C652100434A
:104A1000485942413A004552524F523A00506F6451
:104A2000706F726100537570706F727400537461AF
:104A300074697374696B61202000537461746973C5
:104A4000746963732020004B616C696272616365F5
:104A50000043616C6962726174696F6E0056796AB5
:104A60006D6F75742066696C616D656E7400556E4E
:104A70006C6F61642066696C616D656E74005A616B
:104A8000766573742066696C616D656E74004C6F39
:104A900061642066696C616D656E74004175746F48
:104AA0005A61766564656E692066696C2E00417591
:104AB000746F4C6F61642066696C616D656E740023
:104AC0005A61646E61205344206B61727461004EC0
:104AD0006F205344206361726400506F6B72616396
:104AE0006F76617400526573756D65207072696EC2
:104AF0007400506F7A61737461766974207469739D
:104B00006B005061757365207072696E740050722D
:104B100065646568726576005072656865617400E9
:104B20004C616469740054756E6500446F6C616417
:104B3000656E69206F7379205A004C697665206133
:104B4000646A757374205A00496E666F726D616392
:104B50006500496E666F2073637265656E00446F11
:104B60006B6F6E636F76616E6920706F68796275C6
:104B70000046696E697368696E67206D6F76656D52
:104B8000656E7473004372617368206465742E20CF
:104B9000205B4E2F415D0043726173682064657431
:104BA0002E20205B7A61705D00437261736820641F
:104BB00065742E2020205B6F6E5D00437261736808
:104BC000206465742E20205B7679705D00437261ED
:104BD0007368206465742E20205B6F66665D004DEF
:104BE0006F6420202020205B537465616C74685DC5
:104BF000004D6F6465202020205B537465616C74E8
:104C0000685D004D6F642020202020205B4E6F7275
:104C10006D616C5D004D6F646520202020205B4E2F
:104C20006F726D616C5D0046696C2E2073656E7AE3
:104C30006F72205B7A61705D0046696C2E2073652F
:104C40006E736F7220205B6F6E5D0046696C2E2064
:104C500073656E7A6F72205B7679705D0046696C61
:104C60002E2073656E736F72205B6F66665D0056F3
:104C7000796D656E69742066696C616D656E74002E
:104C80004368616E67652066696C616D656E74006E
:104C9000507275746F6B00466C6F77005279636861
:104CA0006C6F737400537065656400FB49E74916C7
:104CB0004A0F4A4D37303200254A1D4A4661696C19
:104CC000207374617473003A4A2D4A514A474A6E00
:104CD0004A5D4A8E4A7E4AAE4A9C4A4661726D20BF
:104CE0006E756D62657200CF4AC04AE54ADA4A02C3
:104CF0004BF24A184B0E4B264B204B3A4B2B4B5248
:104D00004B484B714B5E4B4D36303000854BA94BB9
:104D1000974BCD4BBB4BF14BDF4B154C034C394CF8
:104D2000274C5D4C4B4C804C6F4C974C904CA54C99
:104D30009C4C207A203900206F662039004D657226
:104D4000696D207265666572656E636E692076793D
:104D5000736B75206B616C69627261636E69686FF9
:104D600020626F6475004D6561737572696E6720AE
:104D70007265666572656E636520686569676874EB
:104D8000206F662063616C6962726174696F6E2066
:104D9000706F696E7400457872656D65207370611F
:104DA0006E206F6620746865205A2076616C756588
:104DB00073210000004041FFFFBF400000E442FFBC
:104DC000FFBF4000005743FFFFBF400000574300B4
:104DD00000CC420000E4420000CC42000040410010
:104DE00000CC4200004041000046430000E4420085
:104DF0000046430000574300004643374D324D669E
:104E00004D3D4D062833D036C23E013F154132425A
:104E10003B43F2443B45F24622473B48F2493B4A7A
:104E2000F05898590C5A085B0C5C086110679B6E2F
:104E30002271077208FF095A0D000EFF19045E085F
:104E400020642B6D322FFF4368796261202D20444E
:104E50006F736C6F206B207072657069737520734F
:104E600074617469636B652070616D65746921009C
:104E70004572726F72202D20737461746963206DA6
:104E8000656D6F727920686173206265656E206F51
:104E90007665727772697474656E004B61727461C5
:104EA0002076796A6D757461004361726420726561
:104EB0006D6F766564004B6172746120766C6F7AF9
:104EC000656E61004361726420696E73657274651A
:104ED0006400704E474EA94E9B4EC44EB64E505283
:104EE0005553413344465700000021002400270059
:104EF0002A002D00300033000101000004010701E9
:104F00000A01000020002300260029002C002F00A9
:104F100032000001000003010601090100000A0B34
:104F200002090C0D0E080703040100000000000038
:104F30000000000000000000000000000000000071
:104F4000000000000000000012111000000000002E
:104F50000000000000000000000000000000000051
:104F60000000000000000000000000000000000041
:104F700000004E6168726976616E692050494E4446
:104F8000410050494E44412048656174696E670094
:104F90005465706C2E206B616C2E20202020202008
:104FA000202020200054656D702E2063616C2E201F
:104FB000202020202020202020004B616C6962727C
:104FC000616365204F4B0043616C69627261746973
:104FD0006F6E20646F6E65004B616C696272756AFA
:104FE00069205A0043616C6962726174696E67205E
:104FF0005A00426564204F4B2E0042656420646F66
:105000006E65005A6168726976616E6920626564D6
:10501000004265642048656174696E67005A616882
:10502000726976616E69204F4B2E00486561746924
:105030006E6720646F6E652E005A616872697661D2
:105040006E690048656174696E67005072696E74BC
:10505000657220646973636F6E6E65637465640066
:105060003A2000824F724FA54F904FC74FBA4F2042
:105070002020202020202020202020202020202030
:10508000202000203A2000E44FD84F20202020206C
:105090002020202020202020202020202020200030
:1050A000FA4FF24F115003502B501D5043503950BE
:1050B00020202020202020202020202020002573B8
:1050C000002020002D2D3A2D2D0020002000200052
:1050D0004C002020002046002D2D2D003E5553422F
:1050E000005344002D2D00252020202020002020CA
:1050F000002020000120002020202D2D2D20002028
:10510000205A002020000120004B50547269646531
:105110006E69205B416265636564615D00536F7217
:10512000743A20205B416C7068616265745D005464
:10513000726964656E6920202020205B4361735D85
:1051400000536F72743A2020202020205B54696D38
:10515000655D005344206361726420205B6E6F7252
:105160006D616C5D0053442063617264205B466C2A
:1051700073684169725D005679626572206A617A6E
:10518000796B610053656C656374206C616E677543
:105190006167650052506920706F72742020202072
:1051A0005B7A61705D0052506920706F72742020CC
:1051B0002020205B6F6E5D0052506920706F72740A
:1051C000202020205B7679705D0052506920706F3E
:1051D0007274202020205B6F66665D005465706CE1
:1051E0002E206B616C2E20205B7A61705D0054650F
:1051F0006D702E2063616C2E2020205B6F6E5D0031
:105200005465706C2E206B616C2E20205B7679705B
:105210005D0054656D702E2063616C2E20205B6FE5
:1052200066665D004B6F6E74722E2076656E742E0E
:105230005B7679705D0046616E7320636865636BB1
:1052400020205B6F66665D004B6F6E74722E207659
:10525000656E742E5B7A61705D0046616E732063CB
:105260006865636B2020205B6F6E5D00547269641B
:10527000656E692020205B5A61646E655D00536F26
:1052800072743A2020202020205B4E6F6E655D00F6
:10529000462E206175746F7A61762E205B76797068
:1052A0005D00462E206175746F6C6F6164205B6FCA
:1052B00066665D00462E206175746F7A61762E20D9
:1052C0005B7A61705D00462E206175746F6C6F6152
:1052D0006420205B6F6E5D00462E206175746F7ACE
:1052E00061762E205B4E2F415D00462E2061757445
:1052F0006F6C6F6164205B4E2F415D0046696C2EC0
:105300002073656E7A6F72205B4E2F415D00466997
:105310006C2E2073656E736F72205B4E2F415D00A3
:105320005679706E6F7574206D6F746F727900446A
:10533000697361626C652073746570706572730067
:10534000506F73756E6F7574206F7375004D6F7647
:10535000652061786973005465706C6F74610054E6
:10536000656D706572617475726500473939004406
:10537000697361626C65206661726D206D6F646532
:105380003F001D510B5141512F51535165518451D3
:105390007751A6519451CA51B8514661726D206E31
:1053A000756D62657200EE51DC5112520052446913
:1053B0007361626C65206661726D206D6F6465005B
:1053C000365224525A5248527E526C52A252905235
:1053D000C652B452EA52D8520E53FC524D383400E1
:1053E0002F5320534D5340535F5357535772697493
:1053F000696E6720746F2066696C653A20004669A3
:105400006C652073656C6563746564002053697A0C
:10541000653A200046696C65206F70656E65643A78
:1054200020006F70656E206661696C65642C204693
:10543000696C653A20004E65004E6F00416E6F004A
:1054400059657300EC532E002E00FE530C54145477
:105450002E0022544E6F772066726573682066694D
:105460006C653A20004E6F7720646F696E67206626
:10547000696C653A20002220706F730022207061F1
:1054800072656E743A2200535542524F5554494E3C
:10549000452043414C4C207461726765743A220088
:1054A000747279696E6720746F2063616C6C20730D
:1054B00075622D67636F64652066696C657320771C
:1054C00069746820746F6F206D616E79206C6576E9
:1054D000656C732E204D4158206C6576656C206993
:1054E000733A00395436543E0040543C543E002038
:1054F000003E003E00200000004041FFFFBF400092
:10550000005C43FFFFBF4000005C430000464300D7
:1055100000404100004643436F6E74696E7565201C
:105520007769746820616E6F7468657220626F7746
:1055300064656E3F002500202020202020002020D0
:10554000202020200045524153494E4720616C6C79
:10555000206461746100466163746F727920524502
:1055600053455400454E41424C45440A004449537A
:1055700041424C45440A004653656E736F722000E9
:10558000504154393132355F696E69743A25640A85
:105590000000007F4300005243000052430000001F
:1055A00000000080C09A99193E00000000000080B1
:1055B000C09A99193E746D63323133305F676F74EE
:1055C0006F5F737465702025642025642025642036
:1055D0002564200A000000A0400000A04000000058
:1055E0004025336420737465703D253264206D73EB
:1055F000636E743D2534640A00526573656E643AC7
:1056000020004B494C4C45442E20005072696E746A
:1056100065722068616C7465642E206B696C6C28FF
:10562000292063616C6C656421004D323231204960
:105630006E76616C69642065787472756465722039
:10564000004D32313820496E76616C69642065788E
:1056500074727564657220004D31303920496E7660
:10566000616C696420657874727564657220004DA0
:1056700031303520496E76616C69642065787472CA
:105680007564657220004D31303420496E76616C4E
:1056900069642065787472756465722000F9554DEF
:1056A0003730310002560B564B494C4C3A20002AF9
:1056B00056415658566F5686565A206C6976652064
:1056C00061646A757374206F7574206F66207261EF
:1056D0006E67652E2053657474696E6720746F2041
:1056E000302E20436C69636B20746F20636F6E747F
:1056F000696E75652E005A206C6976652061646A52
:10570000757374206F7574206F662072616E6765A3
:105710002E2053657474696E6720746F20300043C7
:10572000616E6E6F7420656E74657220737562644D
:1057300069723A200053442063617264206F6B00E9
:105740006F70656E526F6F74206661696C6564007E
:10575000766F6C756D652E696E6974206661696C13
:10576000656400534420696E6974206661696C0049
:1057700054726964656E6920736F75626F7275002B
:10578000536F7274696E672066696C6573004E654D
:105790006B7465726520736F75626F7279206E65C8
:1057A0006275646F7520736574726964656E792EB5
:1057B000204D6178696D616C6E6920706F636574EE
:1057C00020736F75626F72752070726F20736574CD
:1057D000726964656E69206A65203130302E00532D
:1057E0006F6D652066696C65732077696C6C206EDF
:1057F0006F7420626520736F727465642E204D6132
:10580000782E204E6F2E206F662066696C6573209F
:10581000696E203120666F6C64657220666F72203D
:10582000736F7274696E67206973203130302E0097
:10583000332E312E33007263006265746100616C37
:1058400070686100646576001F576F6B0A00204620
:10585000002045004731205A0035574057505763C4
:105860005780577057DF578E57454550524F4D2040
:105870004572726F720048617264636F6465642080
:1058800044656661756C742053657474696E6773E2
:10589000204C6F616465640020746F6F206C6F6EC4
:1058A0006720657874727573696F6E2070726576A3
:1058B000656E7465640020636F6C64206578747233
:1058C0007573696F6E2070726576656E74656400BD
:1058D0009858B658537465707261746520746F6F10
:1058E00020686967683A2000D45824F4D43050C343
:1058F0008E20C2A24017828B7011127A910D816C9A
:10590000D90AA861E108C7586607615143061E4BD2
:105910005D05C145A7041A411104093D9803713979
:1059200031034036DB0265339102D4305402802EBD
:105930001D02632CEE01752AC501B028A0011027B5
:1059400081018F2564012B244B01E0223401AC211D
:105950001F018D200D01801FFC00841EED00971D8E
:10596000DF00B81CD200E61BC600201BBC00641A76
:10597000B200B219A8000A19A0006A189900D1173C
:10598000910040178B00B516840031167E00B315C8
:1059900079003A157300C7146F0058146A00EE13AB
:1059A00066008813630025135E00C7125B006C124B
:1059B000570015125400C111510070114F002111F0
:1059C0004B00D61049008D104700461044000210CD
:1059D0004200C00F4000800F3E00420F3C00060F07
:1059E0003B00CB0E3800930E37005C0E3500270EBF
:1059F0003400F30D3200C10D3100900D3000600D08
:105A00002E00320D2D00050D2C00D90C2B00AE0CF4
:105A10002900850C29005C0C2700350C27000E0C92
:105A20002600E80B2400C40B2400A00B23007D0BF0
:105A300023005A0B2100390B2100180B2000F80A13
:105A40001F00D90A1E00BB0A1E009D0A1D00800A05
:105A50001D00630A1C00470A1B002C0A1B00110AC8
:105A60001A00F7091A00DD091900C4091900AB0969
:105A70001900920917007B091800630917004C09E7
:105A8000160036091600200916000A091500F50847
:105A90001500E0081400CC081400B8081400A4088D
:105AA0001400900813007D0812006B0813005808BA
:105AB00012004608120034081100230811001208D1
:105AC000110001081100F0071000E0071000D007D6
:105AD0001000C0071000B0070F00A10710009107C9
